:020000040000fa
:080000000001040000000000f3
:020000040000fa
:0400080050020000a2
:020000040000fa
:04000c00920200005c
:020000040000fa
:04001000d202000018
:020000040000fa
:040014007002000076
:020000040000fa
:04001800b202000030
:020000040000fa
:04001c007805000063
:020000040000fa
:04002000780500005f
:020000040000fa
:04002400780500005b
:020000040000fa
:040028007805000057
:020000040000fa
:04002c007805000053
:020000040000fa
:04003000780500004f
:020000040000fa
:04003400780500004b
:020000040000fa
:040038007805000047
:020000040000fa
:04003c007805000043
:020000040000fa
:04004000780500003f
:020000040000fa
:04004400780500003b
:020000040000fa
:04004800420500006d
:020000040000fa
:04004c007805000033
:020000040000fa
:04005000780500002f
:020000040000fa
:04005400780500002b
:020000040000fa
:040058007805000027
:020000040000fa
:04005c007805000023
:020000040000fa
:04006000780500001f
:020000040000fa
:04006400780500001b
:020000040000fa
:040068007805000017
:020000040000fa
:04006c007805000013
:020000040000fa
:04007000780500000f
:020000040000fa
:04007400780500000b
:020000040000fa
:040078007805000007
:020000040000fa
:04007c007805000003
:020000040000fa
:0400800078050000ff
:020000040000fa
:0400840078050000fb
:020000040000fa
:0400880078050000f7
:020000040000fa
:04008c0078050000f3
:020000040000fa
:0400900078050000ef
:020000040000fa
:0400940078050000eb
:020000040000fa
:0400980078050000e7
:020000040000fa
:04009c0078050000e3
:020000040000fa
:0400a00078050000df
:020000040000fa
:0400a40078050000db
:020000040000fa
:0400a80078050000d7
:020000040000fa
:0400ac0078050000d3
:020000040000fa
:0400b00078050000cf
:020000040000fa
:0400b40078050000cb
:020000040000fa
:0400b80078050000c7
:020000040000fa
:0400bc0078050000c3
:020000040000fa
:0400c00078050000bf
:020000040000fa
:0400c40078050000bb
:020000040000fa
:0400c80078050000b7
:020000040000fa
:0400cc0078050000b3
:020000040000fa
:0400d00078050000af
:020000040000fa
:0400d40078050000ab
:020000040000fa
:0400d80078050000a7
:020000040000fa
:0400dc0078050000a3
:020000040000fa
:0400e000780500009f
:020000040000fa
:0400e400780500009b
:020000040000fa
:0400e8007805000097
:020000040000fa
:0400ec007805000093
:020000040000fa
:0400f000780500008f
:020000040000fa
:0400f400780500008b
:020000040000fa
:0400f8007805000087
:020000040000fa
:0400fc007805000083
:020000040000fa
:04010000780500007e
:020000040000fa
:04010400780500007a
:020000040000fa
:040108007805000076
:020000040000fa
:04010c007805000072
:020000040000fa
:04011000780500006e
:020000040000fa
:04011400780500006a
:020000040000fa
:040118007805000066
:020000040000fa
:04011c007805000062
:020000040000fa
:04012000780500005e
:020000040000fa
:04012400780500005a
:020000040000fa
:040128007805000056
:020000040000fa
:04012c007805000052
:020000040000fa
:04013000780500004e
:020000040000fa
:04013400780500004a
:020000040000fa
:040138007805000046
:020000040000fa
:04013c007805000042
:020000040000fa
:04014000780500003e
:020000040000fa
:04014400f2020000c3
:020000040000fa
:040148007805000036
:020000040000fa
:04014c007805000032
:020000040000fa
:04015000780500002e
:020000040000fa
:04015400780500002a
:020000040000fa
:040158007805000026
:020000040000fa
:04015c007805000022
:020000040000fa
:04016000780500001e
:020000040000fa
:04016400780500001a
:020000040000fa
:040168007805000016
:020000040000fa
:04016c007805000012
:020000040000fa
:04017000780500000e
:020000040000fa
:04017400780500000a
:020000040000fa
:040178007805000006
:020000040000fa
:04017c007805000002
:020000040000fa
:040180002402000055
:020000040000fa
:0401840078050000fa
:020000040000fa
:0401880078050000f6
:020000040000fa
:04018c0078050000f2
:020000040000fa
:0401900078050000ee
:020000040000fa
:0401940078050000ea
:020000040000fa
:0401980078050000e6
:020000040000fa
:04019c0078050000e2
:020000040000fa
:0401a00078050000de
:020000040000fa
:0401a40078050000da
:020000040000fa
:0401a80078050000d6
:020000040000fa
:0401ac0078050000d2
:020000040000fa
:0401b00078050000ce
:020000040000fa
:0401b40078050000ca
:020000040000fa
:0401b80078050000c6
:020000040000fa
:0401bc0078050000c2
:020000040000fa
:0401c00078050000be
:020000040000fa
:0401c40078050000ba
:020000040000fa
:0401c80078050000b6
:020000040000fa
:0401cc0078050000b2
:020000040000fa
:0401d00078050000ae
:020000040000fa
:0401d40078050000aa
:020000040000fa
:0401d80078050000a6
:020000040000fa
:0401dc0078050000a2
:020000040000fa
:0401e000780500009e
:020000040000fa
:0401e400780500009a
:020000040000fa
:0401e8007805000096
:020000040000fa
:0401ec007805000092
:020000040000fa
:0401f000780500008e
:020000040000fa
:0401f400780500008a
:020000040000fa
:0401f8007805000086
:020000040000fa
:0401fc007805000082
:020000040000fa
:10020000cf4622000eff27000e01880000000000ec
:10021000000020000000e000020032000001200089
:100220002002880014000700a80207000000e00078
:1002300003003a0060422b0001002000020037005a
:100240000000200001002000810f7000010032003a
:1002500014000700000020000000e000020032004f
:100260000000020000000000fccd020000000000c1
:100270000040da000000fe004440a900e0a5210093
:100280000000e00003003200002020009001880000
:100290004440a800000006008a1f78008b1f7800e9
:1002a00000000600a1028800800478000000eb0036
:1002b0001f003700e284440054a0b4009905ba003e
:1002c000e284440054a0b4009906ba00e2844400d9
:1002d00054a0b4000006eb00476fde00fd07b2003b
:1002e000ae018800636ce10003003a00eaff0700fa
:1002f0000000eb000e003700606ce10008003a00df
:10030000004deb000a05e800020039003420ec0043
:100310000af0a0008b05e900f9ff3e000400370059
:100320006168e100010032000086eb000b0007006d
:1003300019c7ba001905ba000e04e00003003a001c
:100340000a00e000dbff3a0000000600fe07b200f2
:10035000ae0288008a047800f5ff37000cd0a300b5
:10036000e20f4d001c00390089027800354dba00bb
:100370000a05e800020039003420ec000af0a00071
:100380008b05e9000f003200254dba000a05e80090
:10039000020039003420ec000af0a0008b05e900cf
:1003a000080032000c00e0000600320015cdba0053
:1003b0000a05e800020039003420ec000af0a00031
:1003c0008b05e9008984e80054a0b4000b00e0002c
:1003d000e2ff3a00000006009902ba00055d7800cd
:1003e0008b05e900f7ff3200c82ade00055d7800c2
:1003f0008b05e900f3ff32000c00e000f1ff320052
:1004000019ddba00eeff37005ccc040000000000ec
:1004100062c9040000000000180904000000000088
:10042000b60a040000000000d00a0400000000002a
:10043000fe0a040000000000f415040000000000a3
:1004400000000400000000003600f800809fbe009d
:10045000829fbe00849fbe00869fbe003200f800cf
:100460003400f80010002000a001880000202000c7
:10047000900188000000fa00991907000080fa0036
:100480003400f9003200f9004f03be004f02be00f5
:100490004f01be004f00be003600f90000400600cc
:1004a0003600f800809fbe00829fbe00849fbe0081
:1004b000869fbe000000fa008020a9000000eb002b
:1004c000056607000080fa004f03be004f02be0021
:1004d0004f01be004f00be003600f900004006008c
:1004e0003600f800809fbe00829fbe00849fbe0041
:1004f000869fbe000000fa00fc6507008040a9004e
:1005000010002000f46507000080fa004f03be00d1
:100510004f02be004f01be004f00be003600f90082
:10052000004006003600f800809fbe00829fbe009b
:10053000849fbe00869fbe000000fa008060a90074
:1005400020002000e46507000080fa004f03be0091
:100550004f02be004f01be004f00be003600f90042
:10056000004006003600f800809fbe00829fbe005b
:10057000849fbe00869fbe000000fa008080a90014
:1005800030002000d46507000080fa004f03be0051
:100590004f02be004f01be004f00be003600f90002
:1005a000004006003600f800809fbe00829fbe001b
:1005b000849fbe00869fbe000000fa008600a9004e
:1005c00070002000c46507000080fa004f03be00e1
:1005d0004f02be004f01be004f00be003600f900c2
:1005e000004006003600f800809fbe00829fbe00db
:1005f000849fbe00869fbe000000fa0090e0a90024
:10060000f125800000082000008060000000e0006c
:1006100008003200bee4a9002628ef0060418000f7
:10062000200090008000eb00010878002c28ef00eb
:100630000d013700304180008000eb00b200200047
:1006400003002000820f5000838f5800fc003e0002
:10065000006001000b0037003900370075003700db
:100660009c003700f3003700c8003700d90037007e
:10067000f0003700db003700f100370034003700ae
:1006800050003700e08120002000900062006000f0
:100690000000e000f3003a00e0812000100090002c
:1006a00060418800e0812000100090001040780038
:1006b00028e8b700e08120001000900010009000b2
:1006c00050418800e081200010009000e6004000ca
:1006d000e081200011009800e0812000900090004f
:1006e00060432200808f500003003a00e081200028
:1006f0000143220011009800e0812000a00090003a
:100700000100a10021009800e081200090009000ed
:10071000e081200010007800808f500004003a0033
:10072000e0812000a00090000110a00021009800ae
:10073000ba04a8002000200030418800ca00370019
:10074000ba24a8002000200030418800c6003700ed
:10075000f125800000002800008060000000e0001b
:1007600008003200e0812000604090008040e800f6
:10077000e08120006140980040002000535d0700a8
:10078000b9003700704180008000d100f00f2000d8
:1007900000806000b025880070418000610060002a
:1007a000004078000004e00003003200b0002000a8
:1007b00030418800ac003700300020003041880014
:1007c000a9003700f12580000000280000806000ab
:1007d0000000e00008003200e0812000604090004e
:1007e0008040e800e0812000614098004000200047
:1007f000365d07009c003700ba24a80070418000d5
:100800004800de00e6006000000f200001007000dc
:1008100070418800704180000000a0007041880095
:1008200010c0b30030e8b70020002000304188003d
:100830008d00370030c8bf00e14f50000a00320081
:1008400050418000100078007041880050418000c5
:10085000200090009041880050418000204090008e
:1008600034e8b700010037003068ef0071418000c4
:10087000f00f2000808f500009003600704180008a
:100880004800de00e6006000000f2000010070005c
:10089000b0258800a0002000304188007200370099
:1008a00070418000b02588007041800061006000c8
:1008b000004078000004e0000300320050002000f7
:1008c0003041880068003700300020003041880047
:1008d00065003700f12580000000280000806000de
:1008e0000000e00009003200e0812000604090003c
:1008f0008040e800e081200061409800bfe4a9004a
:1009000050002000f15c07005700370034c8bf00da
:100910008080fb008100e900cf08de008140780084
:100920000040e90034e8b7000104e00010003200a4
:1009300050418000660040005041880028c8bf0038
:100940000040e90028e8b70028c8bf000004e00024
:1009500003003a0020002000dc5c07004200370062
:10096000ba24a80020002000304188003e00370053
:1009700090418000904078008180fb00b125880084
:100980000000e8009041880037003700f125800022
:1009900000002800008060000000e0000900320034
:1009a000e0812000604090008040e800e08120006d
:1009b0006140980040002000c45c0700bfe4a9002b
:1009c00029003700ba64a800800020003041880068
:1009d000250037008000200030418800ba64a8005c
:1009e0002100370090418000a125800081407800df
:1009f000014878000000e8009041880034c8bf003a
:100a00000040e90034e8b70034c8bf000004e0004b
:100a100004003200baa4a900600020003041880020
:100a200002003700baa4a800975c0700ba84a800a7
:100a30000d00370020002000a45c07000a003700ea
:100a4000e0812000604090008040e800e0812000cc
:100a500061409800600020009c5c070000000000de
:100a600001003700000000000080fa004f03be00c4
:100a70004f02be004f01be004f00be003600f9001d
:100a8000004006003600f800809fbe00829fbe0036
:100a9000849fbe00869fbe000000fa00c045800013
:100aa0000000e00002003200c045800000000100ac
:100ab000f03f2200104078008040e800f03f220024
:100ac00001487800e03f220011c0b30001487800df
:100ad0008900a9000080fa004f03be004f02be004b
:100ae0004f01be004f00be003600f9000040060076
:100af0000040da000000fe000a00fa0011002000a9
:100b0000b1bf9f00c0bf9f006a805700eb0807007d
:100b10004fb897000080fa00000006000a00fa00b3
:100b2000e20f500034003e0040238100e10f5000ee
:100b300003003200e20f500011003a000c003700b1
:100b4000833920000300e00001003a000040da0091
:100b50009803e20002003500a023ef0099e3a8000b
:100b60009b43ab000d003a009b43a8000b003700ed
:100b7000e33a20000300e00001003a000040da0000
:100b8000ae03e20002003500b623ef00afe3a80099
:100b9000b143ab0001003a00b143a80082017800e4
:100ba0000b0037003102fb00e10f500004003a0057
:100bb0009b23ab00feff3a00e41c880003003700d3
:100bc000b123ab00feff3a00941d88008301e900c9
:100bd0000300e000f3ff3a00e10f500003003a0089
:100be0009b03ab00feff32000b003700b103ab00ec
:100bf000feff32000800370033002000b3bf9f0023
:100c0000c0bf9f00d1bf9f00e2bf9f006a80570016
:100c1000ac0807006fb99700020078000080fa0066
:100c2000000006000a00fa0051002000b1bf9f003a
:100c3000c0bf9f006a805700a40807005fb89700f4
:100c40000080fa0000000600889fbe008004780043
:100c5000502381000000e00004003a000e0007006d
:100c60000084eb000000e0000800350058238100fc
:100c70000900e000050032000900440006000700fa
:100c80000000e00001003d000084eb000800780057
:100c90004f04be0000000600800078000100e00064
:100ca00003003a00000020005023890000000500e6
:100cb0000080eb0002002000828f500002003e0006
:100cc000512389000000eb00000006000000050031
:100cd0006022b800060220000000d0008180d2000f
:100ce0000482d2008582d2000000a00002025200dd
:100cf00083825a00030031000202420083824a00cc
:100d00000000a1000603e900f3ff3a00000006001e
:100d1000efff07000400be00000006006900e100cc
:100d2000040035006d00e100030034000002b10052
:100d30000100320000000500100005001004b100a1
:100d4000030035009001b10001003c0010000500d7
:100d500000000500800078001106b1000300350096
:100d60009101b10001003c000050a100000006000c
:100d70008001780002003700b15978000201e900d3
:100d80000200e000fcff3a0000000600800178004d
:100d900002003700815978000201e9000200e000fa
:100da000fcff3a0000000600000178008201780094
:100db0003204e000fdff3a0003017800b141780001
:100dc000035978000304e000fcff3a00000006002d
:100dd000020037000204e0000b00320081017800bd
:100de0000002780030417800b14f5100f9ff320025
:100df0001000200014427800934f5200030031008d
:100e00000080eb00000006000000eb000000060080
:100e100080007800010178003104e000fdff3a0015
:100e20000000510000000600800178000200370039
:100e3000845978000201e9000200e0000600320057
:100e4000314278000404e000f9ff3a000200370064
:100e50008059eb000201e9000200e000fcff3a00cb
:100e600000000600e4874700889fbe008a9fbe00fe
:100e70008c1f78008e1f780000057800010778002d
:100e8000020678000e00e00001003a006e8757006d
:100e90008a0578008b047800890578003b44780047
:100ea0000800fb009dff07000000e000f9ff3a008a
:100eb000d0c2b300804f54000300320000c0e900ec
:100ec000804f540002003a008904e8000100370016
:100ed000004478000c0178008e007800090078004a
:100ee0002a0007009e8f540001003a000a0f780084
:100ef0009e0f550003003a00e00f5000e08f5800ad
:100f00000f003a00b2c2b300824f540004003a000e
:100f1000e00f5000e08f580016003d000800370039
:100f2000d2c2b300824f540012003a0002002000e7
:100f300003002800820f5000838f580008003600fd
:100f400020022000e02289006b404000804f5400c6
:100f500006003a00000020000100280005003700cc
:100f600060001000e080180002003700f0ff2f0042
:100f7000f1ff27004f0778004f0678004f05be00ad
:100f80004f04be004f00b10000000600ee8747008e
:100f9000889fbe008a9fbe008c9fbe008e1f780077
:100fa000f0b79f0001067800820578000004780001
:100fb000080578000a047800b84678000d00fb00a8
:100fc00056ff07000000e000f9ff3a00d0c2b3006e
:100fd00080cf56000300320000c0e90080cf5600e9
:100fe00002003a000a05e800010037008046780058
:100ff0000b00e00005003500e18f550003003200d2
:1010000040022000808f5500060034006044b80084
:101010000c00e000720032007fb09700000e7800f4
:10102000480037000b00e0000e003200f08f550042
:101030001a003a0000c3b3009a4f100017003a009c
:101040001a40900081c7b300814f50000300320066
:1010500081c5b300814f500010003a000a85e800b6
:101060000e003700ab00200000c3b3009a4f100001
:101070000a003a001a40900081c7b300814f500027
:10108000040032008b00200081c5b300814f500066
:1010900002003a000a85e8000b0120000a007800ef
:1010a000000278000400780001c3b300b0cf100044
:1010b000fbff3200040778006044b800b4b79f001b
:1010c0000d003700412e220081405000c1ef9f00eb
:1010d0006159b9000800be00d10707004fea970028
:1010e0000401fb00cf91de00c8b79f00d9b79f0075
:1010f00002044000838448008e0278003e00fb001a
:1011000085bf9f003d0007000b017800800078003c
:10111000402e2200520307008fba97000000e00023
:10112000e8ff3a003fb29700850f550007003a00ec
:101130006044b8000c00e00029003200ffb29700c4
:10114000050e78006044b800250037000482520084
:101150009030220060c07d000000fb0000025200c1
:101160001700330011003a004fe997000200fb001e
:10117000cf80de000000540081805c00800f5400ae
:10118000818f5c00090039006159b90085bf9f005b
:10119000cffe07008fba97004fb19700dfb19700dd
:1011a000820f5000838f580005003200200220007b
:1011b000e02289000084eb008084eb00050037000a
:1011c000d0c2b30080cf560002003a006004140081
:1011d000e0841c000c00e00001003200050e7800e5
:1011e0000800be004f0778004f06be004f05be0046
:1011f0004f04be00ef00b100000006008000780040
:101200001104b100030035009101b10001003c0060
:101210000050a00000000600f02281000000e00065
:101220000100320000000100c0452200000006005d
:10123000889fbe00000478000203be00810478008d
:101240000802780089017800120020000600be0024
:1012500024050700890f5000010032000004eb0054
:10126000080078004f04be00000006006800fa0085
:10127000889fbe008a9fbe00800478000104780029
:1012800082057800030578008400780000f92f00bb
:101290000f00400011050700d98f9f00fb8f9f00b2
:1012a0000000eb00a09f9f00e88f9f009a84fb0046
:1012b0000904fb008904ea00cf4cde005002200044
:1012c000800f54000d003200e18f54000b003a00f3
:1012d000090178008a0078007f889700df899700ed
:1012e00003000100f08f9f000000e0009500320035
:1012f0002f9897000000e800a09f9f000905450077
:1013000050022000800f5400040032000800e0006a
:10131000e6ff3a002f9897008b0037000000eb00a3
:10132000809f9f00f0979f00e0979f00d0979f00bd
:10133000c0979f00b0979f0007003700613b2200d5
:101340000100500000004000a13a22006100780036
:10135000cf98970001007000c09f9f000a0478009a
:1013600008057800ba4478008900fb00603b220041
:10137000c50207000000e000f0ff3a00a1c2b30080
:1013800081cf54000e003a008f8897000180e90059
:10139000808f9f0010007800b09f9f000000e00049
:1013a00005003d000000ea00b09f9f004f989700a5
:1013b0000020a000c09f9f000804e8001000370034
:1013c000b09f9f00880078000000eb000500370008
:1013d000f3ff2700830f5000020032006a02b900b9
:1013e0000400410001047800880078003101fb000e
:1013f0000203b100e90f5100f5ff3600b09f9f00d6
:10140000e0c2b300984f1000020032000080eb00f1
:1014100019003700a0c2b300d84f100007003a00ef
:101420008f8897000180e900808f9f00100078006e
:10143000909f9f000804e800100037000000eb00b8
:10144000909f9f008800780005003700f3ff270079
:10145000830f5000020032006a02b900040041000c
:1014600001047800880078003101fb000203b1001c
:10147000e90f5100f5ff3600909f9f0098447800d7
:101480008900fb00203a22007f0207000000e000f4
:10149000020032000804e800010037008044eb003d
:1014a000a97f9f0080c6b30080cf540006003a0099
:1014b00098cf140010003a0066405000a07f9f00b3
:1014c0000804e8000c003700c0c6b30080cf540009
:1014d00009003a0098cf140007003a006740400026
:1014e000d84f100002003a006e4050000100370053
:1014f00010c7b300a07f9f001801fb00c3fb2f00a3
:101500008f81410001f92f008f80400020f92f00ca
:101510000f004000080107000000e00009003a0049
:10152000c1fb2f008f80400020f92f000f004000ea
:10153000900307000000e000020035000805e80005
:101540005aff37000080eb004f05be004f04be007d
:101550000080fa0000000600030278008201780093
:10156000010178008191200040ff3700889fbe0074
:10157000800478000203be00010478006149b800cd
:10158000898fd2008381d200080278000600be0055
:1015900050060700088044004f04be00000006000b
:1015a000881f78000204780008017800f0fd070029
:1015b000080040004f047800000006000000fa0018
:1015c000881f7800000478006a825700bfb997002e
:1015d0000801780061ab200000ad20001600070074
:1015e0000000e000020035008040eb00017478004c
:1015f0004f0478000080fa0000000600889fbe00bb
:10160000000478000203be0081047800080278001c
:1016100089017800120020000600be003104070096
:10162000890f5000010032000004eb000800780030
:101630004f04be00000006006800fa00889fbe004c
:101640008a9fbe008004780001047800820578003b
:10165000030578008400780000f92f000f00400097
:101660001e040700d98f9f00fb8f9f000000eb0036
:10167000a09f9f00e88f9f009a84fb000904fb0055
:101680008904ea00cf4cde0050022000800f540095
:101690000d003200e18f54000b003a000901780080
:1016a0008a0078007f889700df8997000300010097
:1016b000f08f9f000000e000950032002f98970007
:1016c0000000e800a09f9f0009054500500220008f
:1016d000800f5400040032000800e000e6ff3a00ea
:1016e0002f9897008b0037000000eb00809f9f0031
:1016f000f0979f00e0979f00d0979f00c0979f00b2
:10170000b0979f0007003700013d22000100500004
:1017100000004000413c220061007800cf98970013
:1017200001007000c09f9f000a047800080578003f
:10173000ba4478008900fb00003d2200d201070076
:101740000000e000f0ff3a00a1c2b30081cf5400d6
:101750000e003a008f8897000180e900808f9f007b
:1017600010007800b09f9f000000e00005003d00e1
:101770000000ea00b09f9f004f9897000020a00053
:10178000c09f9f000804e80010003700b09f9f0032
:10179000880078000000eb0005003700f3ff270009
:1017a000830f5000020032006a02b90004004100b9
:1017b00001047800880078003101fb000203b100c9
:1017c000e90f5100f5ff3600b09f9f00e0c2b30063
:1017d000984f1000020032000080eb001900370023
:1017e000a0c2b300d84f100007003a008f889700be
:1017f0000180e900808f9f0010007800909f9f007b
:101800000804e800100037000000eb00909f9f00e4
:101810008800780005003700f3ff2700830f500091
:10182000020032006a02b90004004100010478009d
:10183000880078003101fb000203b100e90f51007c
:10184000f5ff3600909f9f00984478008900fb00c8
:10185000c03b22008c0107000000e00002003200c3
:101860000804e800010037008044eb00a97f9f00d6
:1018700080c6b30080cf540006003a0098cf140011
:1018800010003a0066405000a07f9f000804e80066
:101890000c003700c0c6b30080cf540009003a00e6
:1018a00098cf140007003a0067404000d84f10005e
:1018b00002003a006e4050000100370010c7b3002c
:1018c000a07f9f001801fb00c3fb2f008f81410008
:1018d00001f92f008f80400020f92f000f004000f9
:1018e000150007000000e00009003a00c1fb2f00ce
:1018f0008f80400020f92f000f0040009d0207005c
:101900000000e000020035000805e8005aff37003b
:101910000080eb004f05be004f04be000080fa00bf
:1019200000000600030278008201780001017800bf
:10193000e1af200040ff3700889fbe008a1f78007b
:10194000000478000100780082407800e2c6b3000d
:1019500082cf5000c000320015003c006b415100a6
:1019600082cf5000240032000a003c007041510038
:1019700082cf5000f90032006541410082cf500013
:101980006800320050c2b30080cf500028013a00f6
:101990002401370042c6b30082cf50001b00320042
:1019a0006541410082cf500021013a001700370005
:1019b00032c7b30082cf5000e800320007003c007d
:1019c0006441510082cf5000560032000241e800cd
:1019d00082cf500016013a00d200370052c7b30040
:1019e00082cf50004f0032006341410082cf50004f
:1019f0000f013a004b0037009080e90001087800a1
:101a0000280890009140780007013700086990008d
:101a1000c4c6b300844f510007003a00100278009a
:101a200064015200020878001202be004fabde00d3
:101a3000860378001100370014c7b300844f5100ab
:101a400003003200a4c6b300844f510006003a00e0
:101a50001002780068015200020878003202be00cd
:101a60002203be00050037001081e900020878005b
:101a700012027800cfa2de00612bb900049cbe00e8
:101a80000694be000868900082c6b300824f5000e2
:101a90000d00320022c6b300824f500004003a000d
:101aa0000402fb00cfa2de00612bb9000800370062
:101ab00042c7b300824f500003003200664141002c
:101ac000824f500004003a00cfa2de00612bb90023
:101ad000049cbe000694be003802be002803be006f
:101ae00028089000d2c2b300e00f5200e08f5a00e5
:101af000e00f5b00e08f5b000800350038119000bc
:101b00000218a30002003200b2c2b3000300370083
:101b10000208a3004c00320002c2b30082717800b8
:101b20004700370008699000c4c6b300844f5100d5
:101b300006003a00100278006401520002087800a2
:101b40001202be006033b8001100370014c7b300a2
:101b5000844f510003003200a4c6b300844f5100eb
:101b600006003a001002780068015200020878006e
:101b70003202be002203be00050037001081e900da
:101b800002087800120278008002eb006033b8008f
:101b9000049cbe000694be000868900082c6b30094
:101ba000824f50000d00320022c6b300824f500019
:101bb00004003a000482fb008002eb006033b800ae
:101bc0000800370042c7b300824f500003003200c4
:101bd00066414100824f500004003a008002eb0051
:101be0006033b800049cbe000694be00381090001c
:101bf0000038a300140032003802be002803be00e3
:101c0000e00f5200e08f5a00e00f5b00e08f5b00b6
:101c10000d00320080c7b30080cf500003003200b7
:101c200080c5b30080cf500007003a00280890001c
:101c300002c3b300827178000000e800817178006f
:101c40000000e800200c98002808900080814100e6
:101c5000730498003e00370008699000c3c6b300c3
:101c60009080e900834f5100220032000a003c00be
:101c7000e4c15100834f51002500320083c1e800c8
:101c8000834f510013003200e8c15100834f5100cf
:101c90001e003a000a00370043c7b300834f5100cb
:101ca0001b003200e6c14100834f51001800320092
:101cb000e9c15100834f510014003a00050037007c
:101cc0000108780011007800286490000848780026
:101cd0005f003700010878001100780018129000aa
:101ce000cfa2de00612bb9000498be000690be00b2
:101cf0005700370001087800110078001811900093
:101d0000cf91de000288be00510037009080e900cc
:101d10000108780011007800181490000808780075
:101d20004b0037009080e90001087800110278002c
:101d3000cfa2de00612bb900049cbe000694be0059
:101d400028089000808141007304980081c7b30087
:101d500008007800580007003d003700086990002f
:101d600051c6b300814f51001a003a0010017800ab
:101d7000e4005100010878001100be00000c98003a
:101d8000110c9800881190000300e00007003d004e
:101d90008081eb000001eb00770407000001be002a
:101da0008808900081005100080037000001eb0016
:101db00071040700008170000300320008099000e0
:101dc000820050000100370088109000410c9800fc
:101dd0001f0037009080e9000108780011057800a5
:101de0007a049800881490000900e00004003d0087
:101df0000a00780006fc070080047800070037001e
:101e0000090178008000eb000a0078001400070048
:101e10000000e000010032008a045000490c9800e4
:101e20000b00370028089000817178000600370009
:101e300028089000808141000104e00001003a0080
:101e400051c2b300814978000000e800200c9800de
:101e50000000eb004f0578004f04be0000000600b4
:101e600003003700b0cf1000050032000201e90086
:101e7000800178000200e000faff3a00000005004f
:101e80000300780000000600020037000304e000b1
:101e9000060032000001780002007800b0417800ae
:101ea00081cf5100f9ff3a00010037000001eb003b
:101eb0000200780000000600fc874700889fbe00f3
:101ec0008a9fbe008c9fbe008e1f7800000678009f
:101ed00080c5b30080cf50000a0032007740400038
:101ee00080cf50000a0032006940400080cf50008f
:101ef0000b0032001037220080bf9f00ae00200090
:101f00000a0037000236220082bf9f000600370019
:101f10001337220083bf9f008e002000030037008c
:101f20001437220084bf9f000e0120003c02be0037
:101f30002c03be000605be000404be0040c6b3006c
:101f400080cf5000030032006540400080cf500039
:101f50000b003a00e00f5200e08f5a00e00f5b00e8
:101f6000e08f5b0006003d006000b8006011b80023
:101f700004045000858458000605590087855900df
:101f8000e80f57000400320040002000f00f570017
:101f900038003a000100370030002000e00f540004
:101fa000e08f5c00e00f5d00e08f5d0004003a0010
:101fb0008c1090008d0120000100e000060032002e
:101fc0008e00e900888060008fba9700e5c0780035
:101fd000f1ef9f007d012000800078008100e90082
:101fe000050033008b05d1000a85d3008984d30016
:101ff0000884d300f9ff3700089ebe000a96be0091
:10200000120037008d06e9008e00e9008480600030
:102010000fb99700e2c1780082fd2f000f01410047
:1020200003f17e00800078008100e90005003300a4
:102030008783d1000683d3008582d3000482d30036
:10204000f9ff3700049ebe000696be003c02be00ab
:102050002c03be00e00f5200e08f5a00e00f5b003f
:10206000e08f5b008b0034000d00e000e5ff3c00da
:10207000880037000c68900081c6b300814f500083
:102080000b00320006003c000004e00008003200b3
:10209000e6c05000814f50004e003a000400370067
:1020a000c1c6b300814f50004a003a0021003700fa
:1020b0000800e00004003a000c1090008d012000a0
:1020c0000000e00006003200110009000e84d80074
:1020d0000fb99700e2c07800f1ef9f007d0120006a
:1020e000110009000e84d8000a0037001100090011
:1020f0000e04d8008d06e9000e81b90002045400d8
:102100008fb8970061417c0081fd2f008f804000d7
:1021100082f07e00000478000800e0000200320037
:102120000d00e000f1ff3c00cfc4de00614db900be
:1021300025003700e00f5400e08f5c0004003a00f7
:102140000c1090008d0120000000e000070032001c
:102150006171b9000800be00edfa07008fb9970061
:10216000e3417800f3ef9f007d0120006171b90029
:102170000800be00d6fa07000b0037006171b900f5
:102180000800be00970307008d06e90000f1b900c2
:10219000020454000fba9700e4427c0084fd2f0033
:1021a0000f02420005f27e000004be00e00f500066
:1021b000e08f5800020032000d00e000efff3c000d
:1021c0004fcdde008a057800089ebe000a96be004c
:1021d00030003700e00f5400e08f5c00e00f5d003e
:1021e000e08f5d0004003a000c1090008d0120008b
:1021f0000000e000090032006172b900612bb900f3
:102200000800be000a01be002b0407000fba9700a9
:1022100064427800f4ef9f007d0120006172b900f4
:10222000612bb9000800be000a01be001b040700b4
:102230000d0037006172b900612bb9000800be00c3
:102240000a01be00200407008d06e90000f2b90073
:10225000040454008fba970065427c0085fd2f006e
:102260008f82420084f27e00009ebe000296be0075
:102270003c04be002c05be00e00f5400e08f5c0063
:10228000e00f5d00e08f5d00020034000d00e00013
:10229000e8ff3c00e80f570010003a003c109000a7
:1022a0000038a3000d003200f78f560006003e00f4
:1022b00085fd2f008f824200e5c07e0000c3b30081
:1022c00080cf5000050032008d06e90002c3b30044
:1022d00081fd2f008f80400082f07e007881160003
:1022e000420e98007c00900083fd2f008f814100fa
:1022f0008d8041009efa07004c0890008c109000e1
:10230000810f500006003d0000805000300e980004
:102310003c1090000040a100301698000f003700dc
:102320000100e0000d003d00bc109000f480600052
:10233000f08f500009003a002c119000ac0890007a
:10234000810051003c0990008280500000805000c4
:102350004240a90001003400300e98004f07780079
:102360004f06be004f05be004f04be00cf01b100b6
:10237000000006000400fa00889fbe008a9fbe008d
:102380008c1f78000004780001067800a8149000e3
:1023900028089000808454003808900080845400fd
:1023a00048089000808454005808900080845400ad
:1023b000680890008084540078089000808454005d
:1023c0000002220090bf9f0000032300a0bf9f00d7
:1023d000381090000028a30015003a000900e00022
:1023e00013003400090578008a057800e20f5500d3
:1023f000010036002b002000c80190000b0178007e
:10240000ee8057006800900003000100600498000f
:102410000000e000aa003200181090000b004000fd
:10242000101498000b0555004240a900eeff3c0037
:10243000280990000200e0000c003400c801900060
:102440008c00780068009000030001006004980090
:102450008080eb000000e0009a00320098109000ad
:10246000280890000080400010149800380d90005b
:102470000a00e000110034008a057800e20f5500e0
:10248000010036002b002000c80190000b017800ed
:10249000ec80570068009000030001006004980081
:1024a0000000e00086003200181090000b00400091
:1024b000101498000b055500edff370008699000d7
:1024c000c808900050c6b300804f510008003a0081
:1024d0000100e00015003400580290000809900047
:1024e0009809900068009000040001000700370080
:1024f0000100e0000d003400c801900001017800e7
:10250000f80090006800900003000100600498004b
:102510008080eb000000e0006a003200981090001c
:10252000480890000080400010149800580d90005a
:102530000a00e000110034008a057800e20f55001f
:10254000010036002b002000c80190000b0178002c
:10255000ec805700680090000300010060049800c0
:102560000000e00056003200181090000b00400000
:10257000101498000b055500edff37000869900016
:102580006808900051c6b300814f51000d003a0019
:102590000000e0001c00340078019000c8089000a2
:1025a000010141006111b800828fd2008381d20005
:1025b000580290008000780068009000040001003c
:1025c000090037000000e0000f003400780190009f
:1025d000c808900081004100c80190000001780007
:1025e0006800900003000100600498008080eb0008
:1025f0000000e0003300320098109000680890005e
:102600000080400010149800780d90000a00e0004f
:10261000110034008a057800e20f550001003600f1
:102620002b002000c80190000b017800ec805700bf
:102630006800900003000100600498000000e000c2
:102640001f003200181090000b004000101498007a
:102650000b055500edff3700381090008000eb00af
:102660000028a300170032000900e0001500340024
:1026700009057800e28f5400010036002a0020008e
:10268000c80190000a017800ee80570068009000b1
:1026900003000100600498000000e0000800320020
:1026a000181090000a004000101498008a8454000a
:1026b0004240a900eeff3c008000eb000100370023
:1026c0008080eb00010078004f0678004f05be00c7
:1026d0004f04be000080fa000000060001087800e8
:1026e00000000600e6874700889fbe008a9fbe0064
:1026f0008c9fbe008e1f780082bf9f00040478006c
:10270000029ab900f4b79f000400e00059003200bb
:102710000fb997000200e000570032000006be002b
:1027200004077800c800900068009000808f500077
:102730000400390008007800910007000000e00064
:102740003b00350000402000180060000a00320005
:102750008e017800a20020000c00be0006020700d7
:102760000005be0000807500070032008c04550093
:102770008904e800050037008e0478000a00200074
:102780000b002000010037008e0478004801900003
:102790006800900002005000890f500003003100d3
:1027a000800478000a0020000b0020006111b800ae
:1027b000828fd2008381d200090278000c00be0013
:1027c000c4010700090757004800900009004000b5
:1027d000400498000a857500040032000800780063
:1027e0002c0007000000e00011003a000e00e0009d
:1027f0000f0032006148b800808fd2008180d20083
:102800000000780000f0a1008c01d0000001d00091
:10281000028641004220a80081864e004200a900a5
:102820004220ae004200a8000c86d300bdff370056
:1028300000802000180060000200320008007800cc
:102840001400070000c020001800600002003200e1
:10285000c8019000630498007fb097000e075000f5
:102860000fb99700110009000287d8008001780095
:10287000010037008001eb00030078004f0778006b
:102880004f06be004f05be004f04be006f00b100f2
:1028900000000600889fbe00000478000800e000e9
:1028a0000f003a008004eb00090478008800d00093
:1028b00040252200610078000000e00004003200a2
:1028c000f4ff07000000e00001003d008084eb0001
:1028d0000804e800e80f5400f4ff3a002500370030
:1028e00000002200180060008004eb00210032008c
:1028f000a80490000f0037000901510038409000f3
:102900000000fb008900780084f807000000e00068
:1029100007003c00280090004004980060049800e4
:10292000500c98001890a0008084eb001100370034
:102930008084440048019000828f5400eeff3900eb
:1029400028009000400498009800780002c0200001
:102950000281600001003a003800900001e8a30005
:10296000020032006004980001003700500c98000b
:102970008004eb00090078004f04be000000060050
:10298000889fbe008a1f780000047800c80090006d
:10299000680190000000eb00828f50003c0039007d
:1029a000180078002200290002016000e20f5100a7
:1029b00007003200012020000000e0000100350087
:1029c00001202400008c70000080eb0030003700f4
:1029d0000200260002006000820f500009003a0049
:1029e00038009000808f5000060039000800780001
:1029f000a8ff0700800078000080eb000100e000e5
:102a000023003a001805780000c02000000065008f
:102a100018003a00a804900060022000080040005e
:102a2000808f540013003a0000202000ef000700c0
:102a3000200498000000e00005003a0029049800f6
:102a4000490498008904e800390498000800370018
:102a50000a60a0000a0c78004004980001202000c1
:102a60008080400031049800400c9800500c980081
:102a70000c000700280090005004980038009000d7
:102a80006004980000002600180c70000000eb00a5
:102a90004f0578004f04be0000000600405f210093
:102aa00061003700881f7800484622001804e000c3
:102ab00003003a00f9ff070020c0b300004c780083
:102ac0004f04780000000600889fbe0000047800d4
:102ad000080078006fff07008004780000042000e1
:102ae0001800600002003200280090005a00070021
:102af0000000eb0020049800384090000004e00043
:102b0000050035000000fb00fbf707000000e000b7
:102b1000010032008084eb00181090000000e000fb
:102b2000080032003ff807000000e000010032001a
:102b30008084eb0018109000470007000000eb00b5
:102b400010149800000820001800600015003200e2
:102b50000001eb006000b800432522000202d00013
:102b600063027a00880f520005003a00000040001e
:102b700081804800008041000008eb00060037001b
:102b800061004000e08048000201e800e80f5000ca
:102b9000e08f5800f0ff3a00080078002e00070090
:102ba0000e003700000c780000c0eb0030449800a5
:102bb00060022000080040002004980040049800b3
:102bc00050049800400c980060049800500c980045
:102bd0007004980076004400000c9800090078000a
:102be0004f04be0000000600881f78000004eb00c0
:102bf0006140b800e2ff2f00f3ff2f00080107003b
:102c000022262200620078000000e000010032006d
:102c1000adff07000804e800e80f5400f4ff3a0095
:102c20004f04780000000600010020000100e000d1
:102c300008003200010080000100e00005003200c1
:102c40008100e900010088008100d00002008000be
:102c500000b17800000006000000e0002f00320004
:102c6000c0017800e38f51002c0036000308a30058
:102c70002a003a00112381000100e0000200320026
:102c8000810f5000040031001100980010238900ca
:102c90001600370082007800110190000200e00069
:102ca00002003200800f5100faff39001102780053
:102cb00084824000850f500018003900808f520038
:102cc00003003a0083084200010078000700370043
:102cd0000200e0000300320083014000830f510036
:102ce0000e003900120098009000980090009000ab
:102cf0000100e0000900320010014000828f500006
:102d000006003a00024622000009eb00100178009c
:102d10001108410091009000110098000000060089
:102d2000889fbe0000047800012381000100e000bc
:102d300002003200010078000d00370011238100ed
:102d40002046220004003700910f54002500360071
:102d50000180e800910090000100e000faff3a00d5
:102d600010003700920f54001e0036000280e80069
:102d7000100178000200e000faff3a00110178002b
:102d8000112381002046220004003700910f5400d7
:102d9000140036000180e80091009000828f5000fe
:102da000faff3a0039238100888f54000100310076
:102db0008804780009007800360007000000e00071
:102dc00004003a00888f5400050032008904d100c5
:102dd000f5ff3700091878009fff0700d2ff370082
:102de0000000eb004f04be0000000600881f7800c2
:102df000630440000800a1008000eb00800f540035
:102e000021003600e30f540001003e00480020007e
:102e100008007800c2ff07008000eb000000e0001f
:102e2000190032009000780091017800648151000f
:102e3000880f510003003100110190000208780052
:102e400007003700088140000208780091019000d7
:102e50001301980010017800110914008808780007
:102e6000100178000000eb000200e00004003200d6
:102e7000920190000300e000010032000280e800af
:102e8000002389008180e800010078004f04780069
:102e900000000600800078000000eb000100e00068
:102ea000050034000100780067f70700e10f4000db
:102eb00001003a000000eb000000060000c0da004c
:102ec0000000060000c0da000000060000c0da00c2
:102ed000000006003400f8003200f8000203be00d3
:102ee000820270008502720002f0a6008301e800f1
:102ef000a301880000f0a6008100e800910188008d
:102f00001500b2000c003200104978000402e900fc
:102f10001500320061014100020039003420ec004c
:102f20000200280061004000f7ff39003220ec0069
:102f300000002800f4ff3700100978000482e9003f
:102f40000900320062014100020039003420ec0027
:102f50000200280062004000f7ff39003220ec0038
:102f600000002800f4ff37003200f9003400f900b7
:102f70000601be00000006000300e000070032006a
:102f80009501800091018800104278009501880029
:102f90000402fb00820f5200110032008301e9009d
:102fa0009501800091018800104278009501880009
:102fb0000404e00008003200000278001000b000b5
:102fc00000026a004260af0000f0a0000482d2005c
:102fd0000180b000e8ff3700000020000100200061
:102fe00000000600839f68000100e00002003d0031
:102ff00060001000e08018000300e00002003d00c7
:1030000060011100e081190031f707004f00e00076
:1030100002003b0060001000e08018000000060085
:10302000020ab900001bb9000200b800810042008a
:103030008100430000000600889fbe008a9fbe00fa
:1030400030044200b0844a0030054b0090854b00ac
:103050006000b1000898be000a90be000440e10084
:1030600005c8e10006d0e10007d8e1000200310008
:10307000680040001008e8004f05be004f04be0085
:1030800000000600889fbe008a9fbe003004be007c
:103090002005be000418540005985c0006185d0069
:1030a00007985d00110020000440e10005c8e10020
:1030b00006d0e10007d8e100010039008000eb00f4
:1030c000108810004f05be004f04be00000006002f
:1030d0001200fa00889fbe008a9fbe008c9fbe002f
:1030e000e0b79f00f1b79f0082bf9f0093bf9f0092
:1030f0000605be000404be000000eb00d0b79f0030
:10310000c0b79f00b0b79f00a0b79f0090b79f00c7
:10311000000678005fb19700cfb0970082014100b0
:103120003fb097000200e00004003d0037000700b8
:103130007e805700c0ff0700030037003300070000
:103140007e805700cfff0700dfb697000d00e0003c
:103150000c0035006fb29700ffb297000fbb9700cd
:103160009fbb970010002000010020006011b800f4
:103170000002720081827200020373008383730075
:103180001b0007000c06e80001042000810f560018
:10319000e0ff3a000d00e00004003d000802be0020
:1031a0000a03be007e805700a3ff07005fa89700b8
:1031b0000000e00005003a001fb29700afb2970090
:1031c0003fb39700cfb39700090007006fb0970097
:1031d000ffb097000fb997009fb997004f06be0048
:1031e0004f05be004f04be000080fa00000006003c
:1031f0000100070000000600a4b79f00b5b79f00bc
:10320000c6b79f00d7b79f00000006004f09de0039
:1032100082817100b3b79f004f01de0081804000c2
:1032200082807000a1b79f008fb097004f09de0029
:10323000000040000200700090b79f007fa8970038
:103240004f01de00818040008280700081b79f00c6
:103250000d0007004f3ade0000004000040070003f
:10326000f0af9f00080007000402420085824a0078
:1032700006034b0087834b00dfff07000802be00f8
:103280000a03be00000006002fb29700bfb29700ed
:103290004fb39700dfb3970000000600881f780047
:1032a00018002000881f780089ff07008f87e90039
:1032b0004f04780000000600801feb0084ff070029
:1032c0008f87e90000000600889fbe008a9fbe002d
:1032d000e00f5000e08f5800e00f5900e08f5900d8
:1032e0000c003d006044b8006055b8000000540078
:1032f00081805c0002015d0083815d001800200078
:103300001500070008003d00180007000004eb004e
:10331000050037000004eb000f00070002003d002d
:103320001200070018002000dcff07000800e00082
:10333000060032006022b8006033b800000052007e
:1033400081805a0002015b0083815b004f05be0053
:103350004f04be0000000600e00f5200e08f5a004c
:10336000e00f5b00e08f5b00000006006044b800e7
:103370006055b8000402540085825c0006035d00bd
:1033800087835d0000000600889fbe008a9fbe0004
:103390008c1f7800e00f5000e08f5800e00f5900bc
:1033a000e08f59000d003d006044b8006055b80042
:1033b0000000540081805c0002015d0083815d009b
:1033c0001c0020000820e10009a8e1000ab0e1008b
:1033d0000bb8e1000d003d00080037000006eb00cf
:1033e000e00f5200e08f5a00e00f5b00e08f5b00bf
:1033f00006003d006044b8006055b8000402540067
:1034000085825c0006035d0087835d00aaff0700dc
:103410000c00e000060032006022b8006033b80003
:103420000000520081805a0002015b0083815b0032
:103430004f0678004f05be004f04be000000060096
:020000040000fa
:10344000ff070000c80800008e090000510a0000b4
:103450000f0b0000c40b0000710c0000120d0000e7
:10346000a70d00002e0e0000a50e00000d0f00009d
:10347000630f0000a60f0000d70f0000f50f00003b
:10348000ff0f0000f50f0000d70f0000a60f00008f
:10349000630f00000d0f0000a50e00002e0e0000af
:1034a000a70d0000120d0000710c0000c40b0000fd
:1034b0000f0b0000510a00008e090000c808000030
:1034c000ff0700003607000070060000ad05000091
:1034d000ef0400003a0400008d030000ec0200003d
:1034e00057020000d001000059010000f100000067
:1034f0009b000000580000002700000009000000a9
:103500000000000009000000270000005800000033
:103510009b000000f100000059010000d0010000f4
:1035200057020000ec0200008d0300003a04000086
:10353000ef040000ad050000700600003607000033
:10354000ffff00000000000000000000000000007d
:10355000000000000000000000000000000000006b
:10356000000000000000000000000000000000005b
:10357000000000000000000000000000000000004b
:10358000000000000000000000000000000000003b
:10384000ff07000063080000c80800002b09000003
:103850008e090000f1090000510a0000b10a0000c1
:103860000f0b00006a0b0000c40b00001c0c0000d2
:10387000710c0000c30c0000120d00005e0d000072
:10388000a70d0000ec0d00002e0e00006c0e0000d5
:10389000a50e0000db0e00000d0f00003a0f000027
:1038a000630f0000870f0000a60f0000c10f00008b
:1038b000d70f0000e80f0000f50f0000fc0f00001c
:1038c000ff0f0000fc0f0000f50f0000e80f0000e4
:1038d000d70f0000c10f0000a60f0000870f0000e7
:1038e000630f00003a0f00000d0f0000db0e000018
:1038f000a50e00006c0e00002e0e0000ec0d000066
:10390000a70d00005e0d0000120d0000c30c0000aa
:10391000710c00001c0c0000c40b00006a0b0000be
:103920000f0b0000b10a0000510a0000f10900006d
:103930008e0900002b090000c80800006308000081
:10394000ff0700009b07000036070000d3060000b9
:10395000700600000d060000ad0500004d050000da
:10396000ef040000940400003a040000e2030000a9
:103970008d0300003b030000ec020000a0020000e9
:103980005702000012020000d00100009201000066
:103990005901000023010000f1000000c4000000f4
:1039a0009b00000077000000580000003d00000070
:1039b00027000000160000000900000002000000bf
:1039c00000000000020000000900000016000000d6
:1039d000270000003d0000005800000077000000b4
:1039e0009b000000c4000000f10000002301000063
:1039f0005901000092010000d001000012020000f5
:103a000057020000a0020000ec0200003b0300008f
:103a10008d030000e20300003a040000940400005b
:103a2000ef0400004d050000ad0500000d0600008c
:103a300070060000d3060000360700009b07000058
:103a4000ffff000000000000000000000000000078
:103a50000000000000000000000000000000000066
:103a60000000000000000000000000000000000056
:103a70000000000000000000000000000000000046
:103a80000000000000000000000000000000000036
:103a90000000000000000000000000000000000026
:103aa0000000000000000000000000000000000016
:103ab0000000000000000000000000000000000006
:103ac00000000000000000000000000000000000f6
:103ad00000000000000000000000000000000000e6
:103ae00000000000000000000000000000000000d6
:103af00000000000000000000000000000000000c6
:103b000000000000000000000000000000000000b5
:103b100000000000000000000000000000000000a5
:103b20000000000000000000000000000000000095
:103b30000000000000000000000000000000000085
:103b40000000000000000000000000000000000075
:103b50000000000000000000000000000000000065
:103b60000000000000000000000000000000000055
:103b70000000000000000000000000000000000045
:103b80000000000000000000000000000000000035
:103b90000000000000000000000000000000000025
:103ba0000000000000000000000000000000000015
:103bb0000000000000000000000000000000000005
:103bc00000000000000000000000000000000000f5
:103bd00000000000000000000000000000000000e5
:103be00000000000000000000000000000000000d5
:103bf00000000000000000000000000000000000c5
:103c000000000000000000000000000000000000b4
:103c100000000000000000000000000000000000a4
:103c20000000000000000000000000000000000094
:103c30000000000000000000000000000000000084
:103c4000ff0700003108000063080000960800002c
:103c5000c8080000fa0800002b0900005d090000f8
:103c60008e090000c0090000f1090000210a0000cf
:103c7000510a0000810a0000b10a0000e00a0000b9
:103c80000f0b00003d0b00006a0b0000980b0000ba
:103c9000c40b0000f00b00001c0c0000460c0000e0
:103ca000710c00009a0c0000c30c0000eb0c00002b
:103cb000120d0000380d00005e0d0000830d0000a5
:103cc000a70d0000ca0d0000ec0d00000d0e000055
:103cd0002e0e00004d0e00006c0e0000890e00003c
:103ce000a50e0000c10e0000db0e0000f50e000066
:103cf0000d0f0000240f00003a0f00004f0f0000ce
:103d0000630f0000750f0000870f0000970f000081
:103d1000a60f0000b40f0000c10f0000cd0f00007f
:103d2000d70f0000e00f0000e80f0000ef0f0000c9
:103d3000f50f0000f90f0000fc0f0000fe0f00005f
:103d4000ff0f0000fe0f0000fc0f0000f90f000045
:103d5000f50f0000ef0f0000e80f0000e00f00007b
:103d6000d70f0000cd0f0000c10f0000b40f0000fe
:103d7000a60f0000970f0000870f0000750f0000ce
:103d8000630f00004f0f00003a0f0000240f0000e7
:103d90000d0f0000f50e0000db0e0000c10e00004c
:103da000a50e0000890e00006c0e00004d0e0000f4
:103db0002e0e00000d0e0000ec0d0000ca0d0000dc
:103dc000a70d0000830d00005e0d0000380d0000ff
:103dd000120d0000eb0c0000c30c00009a0c000058
:103de000710c0000460c00001c0c0000f00b0000e1
:103df000c40b0000980b00006a0b00003d0b000094
:103e00000f0b0000e00a0000b10a0000810a000068
:103e1000510a0000210a0000f1090000c009000059
:103e20008e0900005d0900002b090000fa0800005f
:103e3000c808000096080000630800003108000070
:103e4000ff070000cd0700009b0700006807000087
:103e50003607000004070000d3060000a10600009a
:103e6000700600003e0600000d060000dd050000a3
:103e7000ad0500007d0500004d0500001e05000099
:103e8000ef040000c1040000940400006604000078
:103e90003a0400000e040000e2030000b803000032
:103ea0008d030000640300003b03000013030000c7
:103eb000ec020000c6020000a00200007b0200002d
:103ec000570200003402000012020000f10100005d
:103ed000d0010000b1010000920100007501000056
:103ee000590100003d01000023010000090100000c
:103ef000f1000000da000000c4000000af00000084
:103f00009b000000890000007700000067000000af
:103f1000580000004a0000003d0000003100000091
:103f2000270000001e000000160000000f00000027
:103f30000900000005000000020000000000000071
:103f4000000000000000000002000000050000006a
:103f5000090000000f000000160000001e00000015
:103f600027000000310000003d0000004a00000072
:103f70005800000067000000770000008900000082
:103f80009b000000af000000c4000000da00000049
:103f9000f100000009010000230100003d010000c4
:103fa000590100007501000092010000b1010000fc
:103fb000d0010000f10100001202000034020000f4
:103fc000570200007b020000a0020000c6020000b1
:103fd000ec020000130300003b0300006403000038
:103fe0008d030000b8030000e20300000e0400008f
:103ff0003a0400006604000094040000c1040000bc
:10400000ef0400001e0500004d0500007d050000c6
:10401000ad050000dd0500000d0600003e060000b5
:1040200070060000a1060000d3060000040700008f
:1040300036070000680700009b070000ffff000034
:10404000000000003f0000007f000000bf000000f3
:10405000ff0000003f0100007f010000bf010000e1
:10406000ff0100003f0200007f020000bf020000cd
:10407000ff0200003f0300007f030000bf030000b9
:10408000ff0300003f0400007f040000bf040000a5
:10409000ff0400003f0500007f050000bf05000091
:1040a000ff0500003f0600007f060000bf0600007d
:1040b000ff0600003f0700007f070000bf07000069
:1040c000ff0700003f0800007f080000bf08000055
:1040d000ff0800003f0900007f090000bf09000041
:1040e000ff0900003f0a00007f0a0000bf0a00002d
:1040f000ff0a00003f0b00007f0b0000bf0b000019
:10410000ff0b00003f0c00007f0c0000bf0c000004
:10411000ff0c00003f0d00007f0d0000bf0d0000f0
:10412000ff0d00003f0e00007f0e0000bf0e0000dc
:10413000ff0e00003f0f00007f0f0000bf0f0000c8
:10414000ffff000000000000000000000000000071
:10415000000000000000000000000000000000005f
:10416000000000000000000000000000000000004f
:10417000000000000000000000000000000000003f
:10418000000000000000000000000000000000002f
:10444000000000001f0000003f0000005f000000af
:104450007f0000009f000000bf000000df000000a0
:10446000ff0000001f0100003f0100005f0100008d
:104470007f0100009f010000bf010000df0100007c
:10448000ff0100001f0200003f0200005f02000069
:104490007f0200009f020000bf020000df02000058
:1044a000ff0200001f0300003f0300005f03000045
:1044b0007f0300009f030000bf030000df03000034
:1044c000ff0300001f0400003f0400005f04000021
:1044d0007f0400009f040000bf040000df04000010
:1044e000ff0400001f0500003f0500005f050000fd
:1044f0007f0500009f050000bf050000df050000ec
:10450000ff0500001f0600003f0600005f060000d8
:104510007f0600009f060000bf060000df060000c7
:10452000ff0600001f0700003f0700005f070000b4
:104530007f0700009f070000bf070000df070000a3
:10454000ff0700001f0800003f0800005f08000090
:104550007f0800009f080000bf080000df0800007f
:10456000ff0800001f0900003f0900005f0900006c
:104570007f0900009f090000bf090000df0900005b
:10458000ff0900001f0a00003f0a00005f0a000048
:104590007f0a00009f0a0000bf0a0000df0a000037
:1045a000ff0a00001f0b00003f0b00005f0b000024
:1045b0007f0b00009f0b0000bf0b0000df0b000013
:1045c000ff0b00001f0c00003f0c00005f0c000000
:1045d0007f0c00009f0c0000bf0c0000df0c0000ef
:1045e000ff0c00001f0d00003f0d00005f0d0000dc
:1045f0007f0d00009f0d0000bf0d0000df0d0000cb
:10460000ff0d00001f0e00003f0e00005f0e0000b7
:104610007f0e00009f0e0000bf0e0000df0e0000a6
:10462000ff0e00001f0f00003f0f00005f0f000093
:104630007f0f00009f0f0000bf0f0000df0f000082
:10464000ffff00000000000000000000000000006c
:10465000000000000000000000000000000000005a
:10466000000000000000000000000000000000004a
:10467000000000000000000000000000000000003a
:10468000000000000000000000000000000000002a
:10469000000000000000000000000000000000001a
:1046a000000000000000000000000000000000000a
:1046b00000000000000000000000000000000000fa
:1046c00000000000000000000000000000000000ea
:1046d00000000000000000000000000000000000da
:1046e00000000000000000000000000000000000ca
:1046f00000000000000000000000000000000000ba
:1047000000000000000000000000000000000000a9
:104710000000000000000000000000000000000099
:104720000000000000000000000000000000000089
:104730000000000000000000000000000000000079
:104740000000000000000000000000000000000069
:104750000000000000000000000000000000000059
:104760000000000000000000000000000000000049
:104770000000000000000000000000000000000039
:104780000000000000000000000000000000000029
:104790000000000000000000000000000000000019
:1047a0000000000000000000000000000000000009
:1047b00000000000000000000000000000000000f9
:1047c00000000000000000000000000000000000e9
:1047d00000000000000000000000000000000000d9
:1047e00000000000000000000000000000000000c9
:1047f00000000000000000000000000000000000b9
:1048000000000000000000000000000000000000a8
:104810000000000000000000000000000000000098
:104820000000000000000000000000000000000088
:104830000000000000000000000000000000000078
:10484000000000000f0000001f0000002f0000000b
:104850003f0000004f0000005f0000006f000000fc
:104860007f0000008f0000009f000000af000000ec
:10487000bf000000cf000000df000000ef000000dc
:10488000ff0000000f0100001f0100002f010000c9
:104890003f0100004f0100005f0100006f010000b8
:1048a0007f0100008f0100009f010000af010000a8
:1048b000bf010000cf010000df010000ef01000098
:1048c000ff0100000f0200001f0200002f02000085
:1048d0003f0200004f0200005f0200006f02000074
:1048e0007f0200008f0200009f020000af02000064
:1048f000bf020000cf020000df020000ef02000054
:10490000ff0200000f0300001f0300002f03000040
:104910003f0300004f0300005f0300006f0300002f
:104920007f0300008f0300009f030000af0300001f
:10493000bf030000cf030000df030000ef0300000f
:10494000ff0300000f0400001f0400002f040000fc
:104950003f0400004f0400005f0400006f040000eb
:104960007f0400008f0400009f040000af040000db
:10497000bf040000cf040000df040000ef040000cb
:10498000ff0400000f0500001f0500002f050000b8
:104990003f0500004f0500005f0500006f050000a7
:1049a0007f0500008f0500009f050000af05000097
:1049b000bf050000cf050000df050000ef05000087
:1049c000ff0500000f0600001f0600002f06000074
:1049d0003f0600004f0600005f0600006f06000063
:1049e0007f0600008f0600009f060000af06000053
:1049f000bf060000cf060000df060000ef06000043
:104a0000ff0600000f0700001f0700002f0700002f
:104a10003f0700004f0700005f0700006f0700001e
:104a20007f0700008f0700009f070000af0700000e
:104a3000bf070000cf070000df070000ef070000fe
:104a4000ff0700000f0800001f0800002f080000eb
:104a50003f0800004f0800005f0800006f080000da
:104a60007f0800008f0800009f080000af080000ca
:104a7000bf080000cf080000df080000ef080000ba
:104a8000ff0800000f0900001f0900002f090000a7
:104a90003f0900004f0900005f0900006f09000096
:104aa0007f0900008f0900009f090000af09000086
:104ab000bf090000cf090000df090000ef09000076
:104ac000ff0900000f0a00001f0a00002f0a000063
:104ad0003f0a00004f0a00005f0a00006f0a000052
:104ae0007f0a00008f0a00009f0a0000af0a000042
:104af000bf0a0000cf0a0000df0a0000ef0a000032
:104b0000ff0a00000f0b00001f0b00002f0b00001e
:104b10003f0b00004f0b00005f0b00006f0b00000d
:104b20007f0b00008f0b00009f0b0000af0b0000fd
:104b3000bf0b0000cf0b0000df0b0000ef0b0000ed
:104b4000ff0b00000f0c00001f0c00002f0c0000da
:104b50003f0c00004f0c00005f0c00006f0c0000c9
:104b60007f0c00008f0c00009f0c0000af0c0000b9
:104b7000bf0c0000cf0c0000df0c0000ef0c0000a9
:104b8000ff0c00000f0d00001f0d00002f0d000096
:104b90003f0d00004f0d00005f0d00006f0d000085
:104ba0007f0d00008f0d00009f0d0000af0d000075
:104bb000bf0d0000cf0d0000df0d0000ef0d000065
:104bc000ff0d00000f0e00001f0e00002f0e000052
:104bd0003f0e00004f0e00005f0e00006f0e000041
:104be0007f0e00008f0e00009f0e0000af0e000031
:104bf000bf0e0000cf0e0000df0e0000ef0e000021
:104c0000ff0e00000f0f00001f0f00002f0f00000d
:104c10003f0f00004f0f00005f0f00006f0f0000fc
:104c20007f0f00008f0f00009f0f0000af0f0000ec
:104c3000bf0f0000cf0f0000df0f0000ffff0000dc
:104c4000ff0f0000bf0f00007f0f00003f0f0000ac
:104c5000ff0e0000bf0e00007f0e00003f0e0000a0
:104c6000ff0d0000bf0d00007f0d00003f0d000094
:104c7000ff0c0000bf0c00007f0c00003f0c000088
:104c8000ff0b0000bf0b00007f0b00003f0b00007c
:104c9000ff0a0000bf0a00007f0a00003f0a000070
:104ca000ff090000bf0900007f0900003f09000064
:104cb000ff080000bf0800007f0800003f08000058
:104cc000ff070000bf0700007f0700003f0700004c
:104cd000ff060000bf0600007f0600003f06000040
:104ce000ff050000bf0500007f0500003f05000034
:104cf000ff040000bf0400007f0400003f04000028
:104d0000ff030000bf0300007f0300003f0300001b
:104d1000ff020000bf0200007f0200003f0200000f
:104d2000ff010000bf0100007f0100003f01000003
:104d3000ff000000bf0000007f0000003f000000f7
:104d4000ffff000000000000000000000000000065
:104d50000000000000000000000000000000000053
:104d60000000000000000000000000000000000043
:104d70000000000000000000000000000000000033
:104d80000000000000000000000000000000000023
:10504000ff0f0000df0f0000bf0f00009f0f0000e8
:105050007f0f00005f0f00003f0f00001f0f0000d8
:10506000ff0e0000df0e0000bf0e00009f0e0000cc
:105070007f0e00005f0e00003f0e00001f0e0000bc
:10508000ff0d0000df0d0000bf0d00009f0d0000b0
:105090007f0d00005f0d00003f0d00001f0d0000a0
:1050a000ff0c0000df0c0000bf0c00009f0c000094
:1050b0007f0c00005f0c00003f0c00001f0c000084
:1050c000ff0b0000df0b0000bf0b00009f0b000078
:1050d0007f0b00005f0b00003f0b00001f0b000068
:1050e000ff0a0000df0a0000bf0a00009f0a00005c
:1050f0007f0a00005f0a00003f0a00001f0a00004c
:10510000ff090000df090000bf0900009f0900003f
:105110007f0900005f0900003f0900001f0900002f
:10512000ff080000df080000bf0800009f08000023
:105130007f0800005f0800003f0800001f08000013
:10514000ff070000df070000bf0700009f07000007
:105150007f0700005f0700003f0700001f070000f7
:10516000ff060000df060000bf0600009f060000eb
:105170007f0600005f0600003f0600001f060000db
:10518000ff050000df050000bf0500009f050000cf
:105190007f0500005f0500003f0500001f050000bf
:1051a000ff040000df040000bf0400009f040000b3
:1051b0007f0400005f0400003f0400001f040000a3
:1051c000ff030000df030000bf0300009f03000097
:1051d0007f0300005f0300003f0300001f03000087
:1051e000ff020000df020000bf0200009f0200007b
:1051f0007f0200005f0200003f0200001f0200006b
:10520000ff010000df010000bf0100009f0100005e
:105210007f0100005f0100003f0100001f0100004e
:10522000ff000000df000000bf0000009f00000042
:105230007f0000005f0000003f0000001f00000032
:10524000ffff000000000000000000000000000060
:10525000000000000000000000000000000000004e
:10526000000000000000000000000000000000003e
:10527000000000000000000000000000000000002e
:10528000000000000000000000000000000000001e
:10529000000000000000000000000000000000000e
:1052a00000000000000000000000000000000000fe
:1052b00000000000000000000000000000000000ee
:1052c00000000000000000000000000000000000de
:1052d00000000000000000000000000000000000ce
:1052e00000000000000000000000000000000000be
:1052f00000000000000000000000000000000000ae
:10530000000000000000000000000000000000009d
:10531000000000000000000000000000000000008d
:10532000000000000000000000000000000000007d
:10533000000000000000000000000000000000006d
:10534000000000000000000000000000000000005d
:10535000000000000000000000000000000000004d
:10536000000000000000000000000000000000003d
:10537000000000000000000000000000000000002d
:10538000000000000000000000000000000000001d
:10539000000000000000000000000000000000000d
:1053a00000000000000000000000000000000000fd
:1053b00000000000000000000000000000000000ed
:1053c00000000000000000000000000000000000dd
:1053d00000000000000000000000000000000000cd
:1053e00000000000000000000000000000000000bd
:1053f00000000000000000000000000000000000ad
:10540000000000000000000000000000000000009c
:10541000000000000000000000000000000000008c
:10542000000000000000000000000000000000007c
:10543000000000000000000000000000000000006c
:10544000ff0f0000ee0f0000de0f0000ce0f000087
:10545000be0f0000ae0f00009e0f00008e0f000078
:105460007e0f00006e0f00005e0f00004e0f000068
:105470003e0f00002e0f00001e0f00000e0f000058
:10548000fe0e0000ee0e0000dd0e0000cd0e00004e
:10549000bd0e0000ad0e00009d0e00008d0e000040
:1054a0007d0e00006d0e00005d0e00004d0e000030
:1054b0003d0e00002d0e00001d0e00000d0e000020
:1054c000fd0d0000ed0d0000dd0d0000cc0d000015
:1054d000bc0d0000ac0d00009c0d00008c0d000008
:1054e0007c0d00006c0d00005c0d00004c0d0000f8
:1054f0003c0d00002c0d00001c0d00000c0d0000e8
:10550000fc0c0000ec0c0000dc0c0000cc0c0000db
:10551000bb0c0000ab0c00009b0c00008b0c0000cf
:105520007b0c00006b0c00005b0c00004b0c0000bf
:105530003b0c00002b0c00001b0c00000b0c0000af
:10554000fb0b0000eb0b0000db0b0000cb0b0000a3
:10555000bb0b0000aa0b00009a0b00008a0b000096
:105560007a0b00006a0b00005a0b00004a0b000087
:105570003a0b00002a0b00001a0b00000a0b000077
:10558000fa0a0000ea0a0000da0a0000ca0a00006b
:10559000ba0a0000aa0a0000990a0000890a00005d
:1055a000790a0000690a0000590a0000490a00004f
:1055b000390a0000290a0000190a0000090a00003f
:1055c000f9090000e9090000d9090000c909000033
:1055d000b9090000a9090000990900008809000024
:1055e0007809000068090000580900004809000017
:1055f0003809000028090000180900000809000007
:10560000f8080000e8080000d8080000c8080000fa
:10561000b8080000a80800009808000088080000ea
:1056200077080000670800005708000047080000de
:1056300037080000270800001708000007080000ce
:10564000f7070000e7070000d7070000c7070000c2
:10565000b7070000a70700009707000087070000b2
:1056600077070000660700005607000046070000a5
:105670003607000026070000160700000607000096
:10568000f6060000e6060000d6060000c60600008a
:10569000b6060000a606000096060000860600007a
:1056a000760600006606000055060000450600006c
:1056b000350600002506000015060000050600005e
:1056c000f5050000e5050000d5050000c505000052
:1056d000b5050000a5050000950500008505000042
:1056e0007505000065050000550500004405000033
:1056f0003405000024050000140500000405000026
:10570000f4040000e4040000d4040000c404000019
:10571000b4040000a4040000940400008404000009
:1057200074040000640400005404000044040000f9
:1057300033040000230400001304000003040000ed
:10574000f3030000e3030000d3030000c3030000e1
:10575000b3030000a30300009303000083030000d1
:1057600073030000630300005303000043030000c1
:1057700032030000220300001203000002030000b5
:10578000f2020000e2020000d2020000c2020000a9
:10579000b2020000a2020000920200008202000099
:1057a0007202000062020000520200004202000089
:1057b000320200002102000011020000010200007c
:1057c000f1010000e1010000d1010000c101000071
:1057d000b1010000a1010000910100008101000061
:1057e0007101000061010000510100004101000051
:1057f0003101000021010000100100000001000043
:10580000f0000000e0000000d0000000c000000038
:10581000b0000000a0000000900000008000000028
:105820007000000060000000500000004000000018
:10583000300000002000000010000000ffff00000a
:10584000411c00002241000041410000417f000056
:105850004141000041410000414100000042000080
:105860007e41000041410000414100007e410000b6
:1058700041410000414100007e000000433e000025
:105880004141000040400000404000004040000016
:1058900040410000413e0000004400007c42000006
:1058a00042420000424200004242000042420000e8
:1058b000424200007c000000457f000040400000a4
:1058c00040400000407800004040000040400000a0
:1058d000407f0000004600007f4000004040000084
:1058e0004040000078400000404000004040000080
:1058f00040000000473e00004040000040400000e3
:10590000404700004141000041410000413e00008d
:1059100000480000414100004141000041410000b9
:105920007f41000041410000414100004100000072
:10593000493e0000080800000808000008080000b0
:105940000808000008080000083e0000004a0000a7
:105950000f0200000202000002020000020200002a
:1059600002420000424200003c0000004b410000a7
:1059700042420000444800005060000050480000cf
:105980004442000042410000004c00004040000042
:105990004040000040400000404000004040000007
:1059a000404000007f0000004d41000063630000a4
:1059b00055550000494100004141000041410000af
:1059c00041410000004e00004161000061510000b3
:1059d0005149000049450000454300004343000091
:1059e000410000004f1c0000224100004141000026
:1059f000414100004141000041410000221c0000e3
:105a0000005000007e410000414100004141000083
:105a10007e40000040400000404000004000000088
:105a2000511c0000224100004141000041410000a2
:105a30004141000041410000221c000006520000cc
:105a40007e41000041410000414100007e500000c5
:105a5000484400004242000041000000533e000064
:105a60004141000040400000403e000001010000b4
:105a700001410000413e0000005400007f0800008a
:105a800008080000080800000808000008080000d6
:105a900008080000080000005541000041410000d6
:105aa00041410000414100004141000041410000ee
:105ab000413e00000056000041410000414100000d
:105ac0002222000022140000141400000808000024
:105ad0000800000057410000424100004149000019
:105ae0004949000049490000494900005522000089
:105af0000058000041410000222200001414000060
:105b0000081400001422000022410000410000009f
:105b1000594100004122000022140000141400002a
:105b20000808000008080000081c0000005a0000d7
:105b30007f030000010200000404000008100000c0
:105b400010200000406000007f000000303e000098
:105b50004343000045450000494900004951000009
:105b600051610000613e0000003100000818000093
:105b70002858000008080000080800000808000075
:105b8000080800007f000000323e000041010000d4
:105b900001010000010e00007040000040400000c4
:105ba000407f0000003300003e4100004101000042
:105bb000010100000e010000010100004141000050
:105bc0003e00000034020000060a0000122200001d
:105bd000427f00000202000002020000021f0000db
:105be000003500007f4000004040000040400000c1
:105bf0007e01000001010000414100003e00000064
:105c0000363e00004141000040400000407e000060
:105c10004141000041410000413e000000370000ca
:105c20007f010000010200000408000010200000b5
:105c3000404000004040000040000000383e0000ae
:105c40004141000041410000413e0000414100004f
:105c500041410000413e0000003900003e4100008b
:105c600041410000414100003f01000001010000ee
:105c7000014100003e000000200000000000000084
:105c80000000000000000000000000000000000014
:105c900000000000003c000000010000030e0000b6
:105ca0001c380000f03800001c0e0000030100004a
:105cb000000000003e00000040600000381c0000b2
:105cc0000e0f00000e1c00003860000040000000b5
:105cd0000025000000310000525200006464000002
:105ce00008130000132500002546000000000000f6
:105cf0003a000000001c00001c1c00000000000016
:105d00001c1c00001c00000000000000002f000010
:105d1000010200000204000004080000080800005e
:105d20001010000020200000400000002d000000a6
:105d300000000000000000003c3c000000000000eb
:105d40000000000000000000000000000a0d00003c
:105d5000006300006d640000203d0000202700006b
:105d6000257300002700000062000000546f00004f
:105d7000676700006c65000020770000686900001c
:105d8000746500002f6200006c610000636b00000e
:105d9000206c0000657400007465000072730000e0
:105da0002025000064000000610000004c65000038
:105db000667400002042000075740000746f0000db
:105dc0006e200000707200006573000073650000b3
:105dd0006400000073000000436500006e74000062
:105de000657200002042000075740000746f0000ae
:105df0006e20000070720000657300007365000083
:105e00006400000064000000526900006768000040
:105e10007420000042750000747400006f6e000072
:105e2000207000007265000073730000656400005c
:105e300000660000005400007269000067670000ff
:105e4000657200002070000072650000737300002e
:105e5000656400000054000072690000676700007c
