:020000040000fa
:080000000001040000000000f3
:020000040000fa
:0400080048020000aa
:020000040000fa
:04000c008a02000064
:020000040000fa
:04001000ca02000020
:020000040000fa
:04001400680200007e
:020000040000fa
:04001800aa02000038
:020000040000fa
:04001c003a050000a1
:020000040000fa
:040020003a0500009d
:020000040000fa
:040024003a05000099
:020000040000fa
:040028003a05000095
:020000040000fa
:04002c003a05000091
:020000040000fa
:040030003a0500008d
:020000040000fa
:040034003a05000089
:020000040000fa
:040038003a05000085
:020000040000fa
:04003c003a05000081
:020000040000fa
:040040003a0500007d
:020000040000fa
:040044003a05000079
:020000040000fa
:040048003a05000075
:020000040000fa
:04004c003a05000071
:020000040000fa
:040050003a0500006d
:020000040000fa
:040054003a05000069
:020000040000fa
:040058003a05000065
:020000040000fa
:04005c003a05000061
:020000040000fa
:040060003a0500005d
:020000040000fa
:040064003a05000059
:020000040000fa
:040068003a05000055
:020000040000fa
:04006c003a05000051
:020000040000fa
:040070003a0500004d
:020000040000fa
:040074003a05000049
:020000040000fa
:040078003a05000045
:020000040000fa
:04007c003a05000041
:020000040000fa
:040080003a0500003d
:020000040000fa
:040084003a05000039
:020000040000fa
:040088003a05000035
:020000040000fa
:04008c003a05000031
:020000040000fa
:040090003a0500002d
:020000040000fa
:040094003a05000029
:020000040000fa
:040098003a05000025
:020000040000fa
:04009c003a05000021
:020000040000fa
:0400a0003a0500001d
:020000040000fa
:0400a4003a05000019
:020000040000fa
:0400a8003a05000015
:020000040000fa
:0400ac003a05000011
:020000040000fa
:0400b0003a0500000d
:020000040000fa
:0400b4003a05000009
:020000040000fa
:0400b8003a05000005
:020000040000fa
:0400bc003a05000001
:020000040000fa
:0400c0003a050000fd
:020000040000fa
:0400c4003a050000f9
:020000040000fa
:0400c8003a050000f5
:020000040000fa
:0400cc003a050000f1
:020000040000fa
:0400d0003a050000ed
:020000040000fa
:0400d4003a050000e9
:020000040000fa
:0400d8003a050000e5
:020000040000fa
:0400dc003a050000e1
:020000040000fa
:0400e0003a050000dd
:020000040000fa
:0400e4003a050000d9
:020000040000fa
:0400e8003a050000d5
:020000040000fa
:0400ec003a050000d1
:020000040000fa
:0400f0003a050000cd
:020000040000fa
:0400f4003a050000c9
:020000040000fa
:0400f8003a050000c5
:020000040000fa
:0400fc003a050000c1
:020000040000fa
:040100003a050000bc
:020000040000fa
:040104003a050000b8
:020000040000fa
:040108003a050000b4
:020000040000fa
:04010c003a050000b0
:020000040000fa
:040110003a050000ac
:020000040000fa
:040114003a050000a8
:020000040000fa
:040118003a050000a4
:020000040000fa
:04011c003a050000a0
:020000040000fa
:040120003a0500009c
:020000040000fa
:040124003a05000098
:020000040000fa
:040128003a05000094
:020000040000fa
:04012c003a05000090
:020000040000fa
:040130003a0500008c
:020000040000fa
:040134003a05000088
:020000040000fa
:040138003a05000084
:020000040000fa
:04013c003a05000080
:020000040000fa
:040140003a0500007c
:020000040000fa
:04014400ea020000cb
:020000040000fa
:040148003a05000074
:020000040000fa
:04014c003a05000070
:020000040000fa
:040150003a0500006c
:020000040000fa
:040154003a05000068
:020000040000fa
:040158003a05000064
:020000040000fa
:04015c003a05000060
:020000040000fa
:040160003a0500005c
:020000040000fa
:040164003a05000058
:020000040000fa
:040168003a05000054
:020000040000fa
:04016c003a05000050
:020000040000fa
:040170003a0500004c
:020000040000fa
:040174003a05000048
:020000040000fa
:040178003a05000044
:020000040000fa
:04017c003a05000040
:020000040000fa
:040180001c0200005d
:020000040000fa
:040184003a05000038
:020000040000fa
:040188003a05000034
:020000040000fa
:04018c003a05000030
:020000040000fa
:040190003a0500002c
:020000040000fa
:040194003a05000028
:020000040000fa
:040198003a05000024
:020000040000fa
:04019c003a05000020
:020000040000fa
:0401a0003a0500001c
:020000040000fa
:0401a4003a05000018
:020000040000fa
:0401a8003a05000014
:020000040000fa
:0401ac003a05000010
:020000040000fa
:0401b0003a0500000c
:020000040000fa
:0401b4003a05000008
:020000040000fa
:0401b8003a05000004
:020000040000fa
:0401bc003a05000000
:020000040000fa
:0401c0003a050000fc
:020000040000fa
:0401c4003a050000f8
:020000040000fa
:0401c8003a050000f4
:020000040000fa
:0401cc003a050000f0
:020000040000fa
:0401d0003a050000ec
:020000040000fa
:0401d4003a050000e8
:020000040000fa
:0401d8003a050000e4
:020000040000fa
:0401dc003a050000e0
:020000040000fa
:0401e0003a050000dc
:020000040000fa
:0401e4003a050000d8
:020000040000fa
:0401e8003a050000d4
:020000040000fa
:0401ec003a050000d0
:020000040000fa
:0401f0003a050000cc
:020000040000fa
:0401f4003a050000c8
:020000040000fa
:0401f8003a050000c4
:020000040000fa
:0401fc003a050000c0
:020000040000fa
:10020000efc523000eff27000e018800000000004c
:10021000000020000000e000020032000001200089
:100220002002880014000700890207000000e00097
:1002300003003a00a06f23000100200002003700f5
:100240000000200001002000810f7000010032003a
:1002500014000700000020000000e000020032004f
:100260000000020000000000bc3502000000000099
:100270000040da000000fe004440a9008042200057
:100280000000e00003003200002020009001880000
:100290004440a800000006008a1f78008b1f7800e9
:1002a00000000600a1028800800478000000eb0036
:1002b0001f003700e284440054a0b4009905ba003e
:1002c000e284440054a0b4009906ba00e2844400d9
:1002d00054a0b4000006eb00476fde00fd07b2003b
:1002e000ae018800636ce10003003a00eaff0700fa
:1002f0000000eb000e003700606ce10008003a00df
:10030000004deb000a05e800020039003420ec0043
:100310000af0a0008b05e900f9ff3e000400370059
:100320006168e100010032000086eb000b0007006d
:1003300019c7ba001905ba000e04e00003003a001c
:100340000a00e000dbff3a0000000600fe07b200f2
:10035000ae0288008a047800f5ff37000cd0a300b5
:10036000e20f4d001c00390089027800354dba00bb
:100370000a05e800020039003420ec000af0a00071
:100380008b05e9000f003200254dba000a05e80090
:10039000020039003420ec000af0a0008b05e900cf
:1003a000080032000c00e0000600320015cdba0053
:1003b0000a05e800020039003420ec000af0a00031
:1003c0008b05e9008984e80054a0b4000b00e0002c
:1003d000e2ff3a00000006009902ba00055d7800cd
:1003e0008b05e900f7ff3200c82ade00055d7800c2
:1003f0008b05e900f3ff32000c00e000f1ff320052
:1004000019ddba00eeff3700384504000000000097
:10041000ba08040000000000d40804000000000036
:100420000209040000000000f813040000000000ae
:1004300000000400000000003600f800809fbe00ad
:10044000829fbe00849fbe00869fbe003200f800df
:100450003400f80010002000a001880000202000d7
:10046000900188000000fa00840d07000080fa0067
:100470003400f9003200f9004f03be004f02be0005
:100480004f01be004f00be003600f90000400600dc
:100490003600f800809fbe00829fbe00849fbe0091
:1004a000869fbe000000fa008020a9000000eb003b
:1004b000512207000080fa004f03be004f02be0029
:1004c0004f01be004f00be003600f900004006009c
:1004d0003600f800809fbe00829fbe00849fbe0051
:1004e000869fbe000000fa00482207008040a90055
:1004f00010002000402207000080fa004f03be00d9
:100500004f02be004f01be004f00be003600f90092
:10051000004006003600f800809fbe00829fbe00ab
:10052000849fbe00869fbe000000fa008060a90084
:1005300020002000302207000080fa004f03be0098
:100540004f02be004f01be004f00be003600f90052
:10055000004006003600f800809fbe00829fbe006b
:10056000849fbe00869fbe000000fa008080a90024
:1005700030002000202207000080fa004f03be0058
:100580004f02be004f01be004f00be003600f90012
:10059000004006003600f800809fbe00829fbe002b
:1005a000849fbe00869fbe000000fa008600a9005e
:1005b00070002000102207000080fa004f03be00e8
:1005c0004f02be004f01be004f00be003600f900d2
:1005d000004006003600f800809fbe00829fbe00eb
:1005e000849fbe00869fbe000000fa0090e0a90034
:1005f000f125800000082000008060000000e0007d
:1006000008003200bee4a9006e28ef00a04380007d
:10061000200090008000eb00010878007428ef00b3
:100620000d013700704380008000eb00b200200015
:1006300003002000820f5000838f5800fc003e0012
:10064000006001000b0037003900370075003700eb
:100650009c003700f3003700c8003700d90037008e
:10066000f0003700db003700f100370034003700be
:10067000500037006086200020009000620060007b
:100680000000e000f3003a006086200010009000b7
:10069000a043880060862000100090001040780081
:1006a00070e8b700608620001000900010009000f5
:1006b000904388006086200010009000e600400013
:1006c0006086200011009800608620009000900055
:1006d00060c32300808f500003003a006086200032
:1006e00001c323001100980060862000a000900044
:1006f0000100a10021009800608620009000900079
:100700006086200010007800808f500004003a00be
:1007100060862000a00090000110a0002100980039
:10072000ba04a8002000200070438800ca003700e7
:10073000ba24a8002000200070438800c6003700bb
:10074000f125800000002800008060000000e0002b
:100750000800320060862000604090008040e80081
:10076000608620006140980040002000e41e0700e1
:10077000b9003700b04380008000d100f00f2000a6
:1007800000806000b0258800b043800061006000f8
:10079000004078000004e00003003200b0002000b8
:1007a00070438800ac0037003000200070438800a0
:1007b000a9003700f12580000000280000806000bb
:1007c0000000e000080032006086200060409000d9
:1007d0008040e800608620006140980040002000d2
:1007e000c71e07009c003700ba24a800b043800051
:1007f0004800de00e6006000000f200001007000ed
:10080000b0438800b04380000000a000b0438800df
:1008100010c0b30078e8b7002000200070438800c3
:100820008d00370078c8bf00e14f50000a00320049
:100830009043800010007800b0438800904380000f
:1008400020009000d043880090438000204090001a
:100850007ce8b700010037007868ef00b143800002
:10086000f00f2000808f500009003600b043800058
:100870004800de00e6006000000f2000010070006c
:10088000b0258800a0002000704388007200370067
:10089000b0438000b0258800b04380006100600054
:1008a000004078000004e000030032005000200007
:1008b00070438800680037003000200070438800d3
:1008c00065003700f12580000000280000806000ee
:1008d0000000e000090032006086200060409000c7
:1008e0008040e8006086200061409800bfe4a900d5
:1008f00050002000821e0700570037007cc8bf0050
:100900008080fb008100e900cf08de008140780094
:100910000040e9007ce8b7000104e000100032006c
:1009200090438000660040009043880070c8bf007c
:100930000040e90070e8b70070c8bf000004e000a4
:1009400003003a00200020006d1e0700420037001f
:10095000ba24a80020002000704388003e00370021
:10096000d0438000904078008180fb00b125880052
:100970000000e800d043880037003700f1258000f0
:1009800000002800008060000000e0000900320044
:1009900060862000604090008040e8006086200073
:1009a0006140980040002000551e0700bfe4a900e8
:1009b00029003700ba64a800800020007043880036
:1009c000250037008000200070438800ba64a8002a
:1009d00021003700d0438000a125800081407800ad
:1009e000014878000000e800d04388007cc8bf00c0
:1009f0000040e9007ce8b7007cc8bf000004e000cc
:100a000004003200baa4a9006000200070438800ee
:100a100002003700baa4a800281e0700ba84a80064
:100a20000d00370020002000351e07000a003700a7
:100a300060862000604090008040e80060862000d2
:100a400061409800600020002d1e0700000000009b
:100a500001003700000000000080fa004f03be00d4
:100a60004f02be004f01be004f00be003600f9002d
:100a7000004006000040da000000fe000a00fa0014
:100a800011002000b1bf9f00c0bf9f006a805700c7
:100a90000c0807004fb897000080fa00000006001d
:100aa0000a00fa00e20f500034003e00d0e281005c
:100ab000e10f500003003200e20f500011003a0035
:100ac0000c003700833920000300e00001003a00e9
:100ad0000040da009803e20002003500a023ef0096
:100ae00099e3a8009b43ab000d003a009b43a8008c
:100af0000b003700e33a20000300e00001003a0059
:100b00000040da00ae03e20002003500b623ef0039
:100b1000afe3a800b143ab0001003a00b143a80025
:100b2000820178000b0037003102fb00e10f50001a
:100b300004003a009b23ab00feff3a00e41c88004f
:100b400003003700b123ab00feff3a00941d88007c
:100b50008301e9000300e000f3ff3a00e10f5000d9
:100b600003003a009b03ab00feff32000b0037008e
:100b7000b103ab00feff3200080037003300200055
:100b8000b3bf9f00c0bf9f00d1bf9f00e2bf9f00c7
:100b90006a805700cd0707006fb997000200780000
:100ba0000080fa00000006000a00fa005100200050
:100bb000b1bf9f00c0bf9f006a805700c5070700f4
:100bc0005fb897000080fa0000000600889fbe0012
:100bd00080047800e0e281000000e00004003a00b8
:100be0000e0007000084eb000000e0000800350064
:100bf000e8e281000900e00005003200090044003d
:100c0000060007000000e00001003d000084eb004a
:100c1000080078004f04be00000006008000780045
:100c20000100e00003003a0000002000e0e289003b
:100c3000000005000080eb0002002000828f5000c1
:100c400002003e00e1e289000000eb000000060027
:100c500000000500020007000400be0000000600be
:100c60006022b800060220000000d0008180d2007f
:100c70000482d2008582d2000000a000020252004d
:100c800083825a00030031000202420083824a003c
:100c90000000a1000603e900f3ff3a00000006008f
:100ca0001004b100030035009001b10001003c00c8
:100cb0001000050000000500800078001106b1005a
:100cc000030035009101b10001003c000050a1007b
:100cd000000006008001780002003700b15978005a
:100ce0000201e9000200e000fcff3a0000000600fb
:100cf0008001780002003700815978000201e90084
:100d00000200e000fcff3a0000000600000178004d
:100d1000820178003204e000fdff3a000301780010
:100d2000b1417800035978000304e000fcff3a0069
:100d30000000060080007800010178003104e00026
:100d4000fdff3a000000510000000600800178001d
:100d500002003700845978000201e9000200e00037
:100d600006003200314278000404e000f9ff3a0046
:100d7000020037008059eb000201e9000200e000a8
:100d8000fcff3a0000000600e4874700889fbe0091
:100d90008a9fbe008c1f78008e1f780000057800a7
:100da00001077800020678000e00e00001003a001a
:100db0006e8757008a0578008b04780089057800d3
:100dc0003b4478000800fb00d50007000000e0006d
:100dd000f9ff3a00d0c2b300804f54000300320044
:100de00000c0e900804f540002003a008904e80086
:100df00001003700004478000c0178008e00780074
:100e0000090078002a0007009e8f540001003a0074
:100e10000a0f78009e0f550003003a00e00f5000c3
:100e2000e08f58000f003a00b2c2b300824f540066
:100e300004003a00e00f5000e08f580016003d001b
:100e400008003700d2c2b300824f540012003a00ab
:100e50000200200003002800820f5000838f5800fa
:100e6000080036002002200080e289006b4040002c
:100e7000804f540006003a000000200001002800c6
:100e80000500370060001000e08018000200370005
:100e9000f0ff2f00f1ff27004f0778004f06780082
:100ea0004f05be004f04be004f00b1000000060019
:100eb000ee874700889fbe008a9fbe008c9fbe00c1
:100ec0008e1f7800f0b79f00010678008205780039
:100ed00000047800080578000a047800b846780015
:100ee0000d00fb008e0007000000e000f9ff3a0053
:100ef000d0c2b30080cf56000300320000c0e9002a
:100f000080cf560002003a000a05e80001003700d1
:100f1000804678000b00e00005003500e18f5500a9
:100f20000300320040022000808f5500060034008c
:100f30006044b8000c00e000720032007fb09700ff
:100f4000000e7800480037000b00e0000e00320071
:100f5000f08f55001a003a0000c3b3009a4f1000fa
:100f600017003a001a40900081c7b300814f50002b
:100f70000300320081c5b300814f500010003a00d9
:100f80000a85e8000e003700ab00200000c3b30064
:100f90009a4f10000a003a001a40900081c7b3002f
:100fa000814f5000040032008b00200081c5b30047
:100fb000814f500002003a000a85e8000b01200032
:100fc0000a007800000278000400780001c3b30032
:100fd000b0cf1000fbff3200040778006044b80077
:100fe000b4b79f000d00370061b22300814050006c
:100ff000c1ef9f006159b9000800be000a07070051
:101000004fea97000401fb00cf91de00c8b79f00b4
:10101000d9b79f0002044000838448008e02780004
:101020003e00fb0085bf9f00450007000b017800d4
:101030008000780060b223008b0207008fba97000f
:101040000000e000e8ff3a003fb29700850f55002e
:1010500007003a006044b8000c00e00029003200ac
:10106000ffb29700050e78006044b80025003700f5
:1010700004825200b0b4230060c07d000000fb0079
:10108000000252001700330011003a004fe99700a8
:101090000200fb00cf80de000000540081805c0075
:1010a000800f5400818f5c00090039006159b9003c
:1010b00085bf9f00eafe07008fba97004fb19700e7
:1010c000dfb19700820f5000838f58000500320077
:1010d0002002200080e289000084eb008084eb0085
:1010e00005003700d0c2b30080cf560002003a009e
:1010f00060041400e0841c000c00e00001003200d9
:10110000050e78000800be004f0778004f06be00ad
:101110004f05be004f04be00ef00b1000000060006
:101120006900e100040035006d00e10003003400b7
:101130000002b100010032000000050010000500af
:10114000800078001104b100030035009101b10066
:1011500001003c000050a0000000060090e2810069
:101160000000e000010032000000010000c5230083
:1011700000000600889fbe00800478000203be00c5
:10118000010478006149b800898fd2008381d200c0
:10119000080278000600be005006070008804400e0
:1011a0004f04be0000000600881f7800020478008b
:1011b00008017800c7fe0700080040004f047800cf
:1011c000000006000000fa00881f78000004780084
:1011d0006a825700bfb9970008017800a18b2000f0
:1011e000408d2000160007000000e00002003500de
:1011f0008040eb00017478004f0478000080fa0012
:1012000000000600889fbe00000478000203be00b4
:10121000810478000802780089017800120020001b
:101220000600be0031040700890f500001003200a3
:101230000004eb00080078004f04be000000060028
:101240006800fa00889fbe008a9fbe008004780074
:101250000104780082057800030578008400780096
:1012600000f92f000f0040001e040700d98f9f00d7
:10127000fb8f9f000000eb00a09f9f00e88f9f0066
:101280009a84fb000904fb008904ea00cf4cde00cd
:1012900050022000800f54000d003200e18f5400f6
:1012a0000b003a00090178008a0078007f889700d7
:1012b000df89970003000100f08f9f000000e0002d
:1012c000950032002f9897000000e800a09f9f0033
:1012d0000905450050022000800f54000400320030
:1012e0000800e000e6ff3a002f9897008b003700d7
:1012f0000000eb00809f9f00f0979f00e0979f0009
:10130000d0979f00c0979f00b0979f0007003700bd
:1013100081bf23000100500000004000c1be230037
:1013200061007800cf98970001007000c09f9f0077
:101330000a04780008057800ba4478008900fb00a8
:1013400080bf2300d20107000000e000f0ff3a0058
:10135000a1c2b30081cf54000e003a008f889700dd
:101360000180e900808f9f0010007800b09f9f00ef
:101370000000e00005003d000000ea00b09f9f0073
:101380004f9897000020a000c09f9f000804e8002d
:1013900010003700b09f9f00880078000000eb002d
:1013a00005003700f3ff2700830f500002003200d2
:1013b0006a02b90004004100010478008800780046
:1013c0003101fb000203b100e90f5100f5ff3600c7
:1013d000b09f9f00e0c2b300984f1000020032009f
:1013e0000080eb0019003700a0c2b300d84f1000f6
:1013f00007003a008f8897000180e900808f9f00e6
:1014000010007800909f9f000804e800100037004b
:101410000000eb00909f9f008800780005003700d7
:10142000f3ff2700830f5000020032006a02b90068
:101430000400410001047800880078003101fb00bd
:101440000203b100e90f5100f5ff3600909f9f00a5
:10145000984478008900fb0040be23008c010700ff
:101460000000e000020032000804e800010037003c
:101470008044eb00a97f9f0080c6b30080cf54005a
:1014800006003a0098cf140010003a006640500061
:10149000a07f9f000804e8000c003700c0c6b3001e
:1014a00080cf540009003a0098cf140007003a009a
:1014b00067404000d84f100002003a006e405000d4
:1014c0000100370010c7b300a07f9f001801fb0088
:1014d000c3fb2f008f81410001f92f008f80400056
:1014e00020f92f000f004000150007000000e00069
:1014f00009003a00c1fb2f008f80400020f92f0027
:101500000f0040009d0207000000e00002003500cf
:101510000805e8005aff37000080eb004f05be00c9
:101520004f04be000080fa000000060003027800ad
:1015300082017800010178002190200040ff3700ef
:10154000889fbe008a1f78000004780001007800a0
:1015500082407800e2c6b30082cf5000c000320063
:1015600015003c006b41510082cf50002400320036
:101570000a003c007041510082cf5000f900320057
:101580006541410082cf50006800320050c2b30074
:1015900080cf500028013a002401370042c6b30032
:1015a00082cf50001b0032006541410082cf5000c5
:1015b00021013a001700370032c7b30082cf500034
:1015c000e800320007003c006441510082cf500027
:1015d000560032000241e80082cf500016013a0066
:1015e000d200370052c7b30082cf50004f00320004
:1015f0006341410082cf50000f013a004b00370099
:101600009080e90001087800280890009140780057
:101610000701370008699000c4c6b300844f510029
:1016200007003a00100278006401520002087800b6
:101630001202be004fabde008603780011003700b7
:1016400014c7b300844f510003003200a4c6b30096
:10165000844f510006003a001002780068015200e1
:10166000020878003202be002203be0005003700e7
:101670001081e9000208780012027800cfa2de0093
:10168000612bb900049cbe000694be00086890005f
:1016900082c6b300824f50000d00320022c6b30054
:1016a000824f500004003a000402fb00cfa2de008b
:1016b000612bb9000800370042c7b300824f5000c9
:1016c0000300320066414100824f500004003a009e
:1016d000cfa2de00612bb900049cbe000694be00c0
:1016e0003802be002803be0028089000d2c2b30012
:1016f000e00f5200e08f5a00e00f5b00e08f5b00cc
:1017000008003500381190000218a30002003200d2
:10171000b2c2b300030037000208a3004c0032003d
:1017200002c2b30082717800470037000869900058
:10173000c4c6b300844f510006003a00100278007e
:1017400064015200020878001202be006033b80043
:101750001100370014c7b300844f5100030032005a
:10176000a4c6b300844f510006003a00100278006e
:1017700068015200020878003202be002203be0057
:10178000050037001081e900020878001202780095
:101790008002eb006033b800049cbe000694be00db
:1017a0000868900082c6b300824f50000d003200de
:1017b00022c6b300824f500004003a000482fb00ae
:1017c0008002eb006033b8000800370042c7b30066
:1017d000824f50000300320066414100824f5000aa
:1017e00004003a008002eb006033b800049cbe00a5
:1017f0000694be00381090000038a3001400320098
:101800003802be002803be00e00f5200e08f5a00ed
:10181000e00f5b00e08f5b000d00320080c7b3007b
:1018200080cf50000300320080c5b30080cf50004d
:1018300007003a002808900002c3b30082717800c4
:101840000000e800817178000000e800200c98009a
:101850002808900080814100730498003e00370002
:1018600008699000c3c6b3009080e900834f51001f
:10187000220032000a003c00e4c15100834f5100b5
:101880002500320083c1e800834f5100130032006d
:10189000e8c15100834f51001e003a000a00370092
:1018a00043c7b300834f51001b003200e6c1410023
:1018b000834f510018003200e9c15100834f51009d
:1018c00014003a0005003700010878001100780084
:1018d00028649000084878005f003700010878000d
:1018e0001100780018129000cfa2de00612bb90021
:1018f0000498be000690be0057003700010878002b
:101900001100780018119000cf91de000288be000f
:10191000510037009080e90001087800110078003c
:1019200018149000080878004b0037009080e900f8
:101930000108780011027800cfa2de00612bb90007
:10194000049cbe000694be002808900080814100df
:101950007304980081c7b30008007800580007009e
:101960003d0037000869900051c6b300814f510017
:101970001a003a0010017800e400510001087800d4
:101980001100be00000c9800110c98008811900006
:101990000300e00007003d008081eb000001eb0048
:1019a000770407000001be00880890008100510004
:1019b000080037000001eb0071040700008170008f
:1019c0000300320008099000820050000100370037
:1019d00088109000410c98001f0037009080e900ab
:1019e00001087800110578007a04980088149000a6
:1019f0000900e00004003d000a007800cdfc07006b
:101a00008004780007003700090178008000eb00af
:101a10000a007800140007000000e0000100320016
:101a20008a045000490c98000b00370028089000e9
:101a300081717800060037002808900080814100fd
:101a40000104e00001003a0051c2b300814978006e
:101a50000000e800200c98000000eb004f05780023
:101a60004f04be000000060003003700b0cf100096
:101a7000050032000201e900800178000200e00068
:101a8000faff3a000000050003007800000006009d
:101a9000020037000304e000060032000001780075
:101aa00002007800b041780081cf5100f9ff3a0080
:101ab000010037000001eb00020078000000060082
:101ac000fc874700889fbe008a9fbe008c9fbe0097
:101ad0008e1f78000006780080c5b30080cf5000cc
:101ae0000a0032007740400080cf50000a003200e8
:101af0006940400080cf50000b00320030bb230013
:101b000080bf9f00ae0020000a00370022ba2300e9
:101b100082bf9f000600370033bb230083bf9f00b6
:101b20008e0020000300370034bb230084bf9f00d9
:101b30000e0120003c02be002c03be000605be00c4
:101b40000404be0040c6b30080cf50000300320042
:101b50006540400080cf50000b003a00e00f52007b
:101b6000e08f5a00e00f5b00e08f5b0006003d0055
:101b70006000b8006011b80004045000858458006b
:101b80000605590087855900e80f57000400320008
:101b900040002000f00f570038003a0001003700e5
:101ba00030002000e00f5400e08f5c00e00f5d008b
:101bb000e08f5d0004003a008c1090008d01200041
:101bc0000100e000060032008e00e900888060001d
:101bd0008fba9700e5c07800f1ef9f007d012000eb
:101be000800078008100e900050033008b05d100fa
:101bf0000a85d3008984d3000884d300f9ff370015
:101c0000089ebe000a96be00120037008d06e9004d
:101c10008e00e900848060000fb99700e2c178006f
:101c200082fd2f000f01410003f17e00800078004b
:101c30008100e900050033008783d1000683d300cb
:101c40008582d3000482d300f9ff3700049ebe00d2
:101c50000696be003c02be002c03be00e00f520000
:101c6000e08f5a00e00f5b00e08f5b008b003400d8
:101c70000d00e000e5ff3c00880037000c68900094
:101c800081c6b300814f50000b00320006003c00bb
:101c90000004e00008003200e6c05000814f500010
:101ca0004e003a0004003700c1c6b300814f500017
:101cb0004a003a00210037000800e00004003a0022
:101cc0000c1090008d0120000000e00006003200a2
:101cd000110009000e84d8000fb99700e2c0780007
:101ce000f1ef9f007d012000110009000e84d80053
:101cf0000a003700110009000e04d8008d06e90023
:101d00000e81b900020454008fb8970061417c0035
:101d100081fd2f008f80400082f07e00000478005b
:101d20000800e000020032000d00e000f1ff3c007e
:101d3000cfc4de00614db90025003700e00f54002c
:101d4000e08f5c0004003a000c1090008d01200030
:101d50000000e000070032006171b9000800be0019
:101d6000bcfb07008fb99700e3417800f3ef9f00b9
:101d70007d0120006171b9000800be00b8fb0700ba
:101d80000b0037006171b9000800be00970307001f
:101d90008d06e90000f1b900020454000fba970063
:101da000e4427c0084fd2f000f02420005f27e0019
:101db0000004be00e00f5000e08f58000200320027
:101dc0000d00e000efff3c004fcdde008a057800fb
:101dd000089ebe000a96be0030003700e00f540097
:101de000e08f5c00e00f5d00e08f5d0004003a00d2
:101df0000c1090008d0120000000e000090032006e
:101e00006172b900612bb9000800be000a01be0072
:101e10002b0407000fba970064427800f4ef9f008c
:101e20007d0120006172b900612bb9000800be007d
:101e30000a01be001b0407000d0037006172b900e3
:101e4000612bb9000800be000a01be002004070093
:101e50008d06e90000f2b900040454008fba97001f
:101e600065427c0085fd2f008f82420084f27e0057
:101e7000009ebe000296be003c04be002c05be00c3
:101e8000e00f5400e08f5c00e00f5d00e08f5d002c
:101e9000020034000d00e000e8ff3c00e80f5700ae
:101ea00010003a003c1090000038a3000d003200f2
:101eb000f78f560006003e0085fd2f008f824200fe
:101ec000e5c07e0000c3b30080cf500005003200a3
:101ed0008d06e90002c3b30081fd2f008f80400012
:101ee00082f07e0078811600420e98007c009000ff
:101ef00083fd2f008f8141008d80410075fb07001d
:101f00004c0890008c109000810f500006003d009e
:101f100000805000300e98003c1090000040a1005e
:101f2000301698000f0037000100e0000d003d0062
:101f3000bc109000f4806000f08f500009003a005f
:101f40002c119000ac089000810051003c099000d9
:101f500082805000008050004240a90001003400ff
:101f6000300e98004f0778004f06be004f05be00a8
:101f70004f04be00cf01b100000006000400fa00cb
:101f8000889fbe008a9fbe008c1f780000047800e6
:101f900001067800a814900028089000808454005e
:101fa00038089000808454004808900080845400d1
:101fb0005808900080845400680890008084540081
:101fc00078089000808454000002220090bf9f0097
:101fd00000032300a0bf9f00381090000028a3003a
:101fe00015003a000900e0001300340009057800ec
:101ff0008a057800e20f5500010036002b00200012
:10200000c80190000b017800ee8057006800900036
:1020100003000100600498000000e000aa00320004
:10202000181090000b004000101498000b0555008c
:102030004240a900eeff3c00280990000200e000a9
:102040000c003400c80190008c00780068009000fb
:1020500003000100600498008080eb000000e000b5
:102060009a003200981090002808900000804000ec
:1020700010149800380d90000a00e00011003400a0
:102080008a057800e20f5500010036002b00200081
:10209000c80190000b017800ec80570068009000a8
:1020a00003000100600498000000e0008600320098
:1020b000181090000b004000101498000b055500fc
:1020c000edff370008699000c808900050c6b300c3
:1020d000804f510008003a000100e0001500340074
:1020e000580290000809900098099000680090003c
:1020f00004000100070037000100e0000d0034007b
:10210000c801900001017800f8009000680090007c
:1021100003000100600498008080eb000000e000f4
:102120006a0032009810900048089000008040003b
:1021300010149800580d90000a00e00011003400bf
:102140008a057800e20f5500010036002b002000c0
:10215000c80190000b017800ec80570068009000e7
:1021600003000100600498000000e0005600320007
:10217000181090000b004000101498000b0555003b
:10218000edff3700086990006808900051c6b30061
:10219000814f51000d003a000000e0001c003400a7
:1021a00078019000c8089000010141006111b80059
:1021b000828fd2008381d200580290008000780084
:1021c0006800900004000100090037000000e000f2
:1021d0000f00340078019000c80890008100410091
:1021e000c801900000017800680090000300010021
:1021f000600498008080eb000000e00033003200b3
:10220000981090006808900000804000101498001a
:10221000780d90000a00e000110034008a05780073
:10222000e20f5500010036002b002000c80190008d
:102230000b017800ec80570068009000030001005b
:10224000600498000000e0001f00320018109000a9
:102250000b004000101498000b055500edff3700ef
:10226000381090008000eb000028a3001700320017
:102270000900e0001500340009057800e28f5400e1
:10228000010036002a002000c80190000a017800f1
:10229000ee80570068009000030001006004980081
:1022a0000000e00008003200181090000a00400012
:1022b000101498008a8454004240a900eeff3c00ac
:1022c0008000eb00010037008080eb000100780007
:1022d0004f0678004f05be004f04be000080fa0094
:1022e000000006000108780000000600e6874700ad
:1022f000889fbe008a9fbe008c9fbe008e1f780004
:1023000082bf9f0004047800029ab900f4b79f00ce
:102310000400e000590032000fb997000200e0000d
:10232000570032000006be0004077800c800900085
:1023300068009000808f5000040039000800780089
:10234000910007000000e0003b0035000040200045
:10235000180060000a0032008e017800a200200000
:102360000c00be00060207000005be0000807500dc
:10237000070032008c0455008904e800050037008e
:102380008e0478000a0020000b00200001003700b6
:102390008e04780048019000680090000200500010
:1023a000890f500003003100800478000a002000eb
:1023b0000b0020006111b800828fd2008381d2000f
:1023c000090278000c00be00c4010700090757008d
:1023d0004800900009004000400498000a857500fc
:1023e00004003200080078002c0007000000e00024
:1023f00011003a000e00e0000f0032006148b80002
:10240000808fd2008180d2000000780000f0a1000f
:102410008c01d0000001d000028641004220a800bb
:1024200081864e004200a9004220ae004200a80072
:102430000c86d300bdff370000802000180060002c
:1024400002003200080078001400070000c02000dd
:102450001800600002003200c80190006304980078
:102460007fb097000e0750000fb9970011000900c8
:102470000287d80080017800010037008001eb005e
:10248000030078004f0778004f06be004f05be00de
:102490004f04be006f00b10000000600889fbe0020
:1024a000000478000800e0000f003a008004eb0010
:1024b000090478008800d00060a92300610078003a
:1024c0000000e00004003200f4ff07000000e0001c
:1024d00001003d008084eb000804e800e80f540090
:1024e000f4ff3a00250037000000220018006000c9
:1024f0008004eb0021003200a80490000f00370098
:1025000009015100384090000000fb00890078006c
:1025100063f907000000e00007003c00280090007d
:102520004004980060049800500c98001890a00097
:102530008084eb0011003700808444004801900043
:10254000828f5400eeff390028009000400498006c
:102550009800780002c020000281600001003a006b
:102560003800900001e8a3000200320060049800e7
:1025700001003700500c98008004eb00090078003f
:102580004f04be0000000600889fbe008a1f78002e
:1025900000047800c8009000680190000000eb0083
:1025a000828f50003c00390018007800220029007a
:1025b00002016000e20f51000700320001202000fc
:1025c0000000e0000100350001202400008c7000b4
:1025d0000080eb003000370002002600020060009f
:1025e000820f500009003a0038009000808f5000a0
:1025f0000600390008007800a8ff07008000780076
:102600000080eb000100e00023003a00180578008c
:1026100000c020000000650018003a00a8049000e7
:102620006002200008004000808f540013003a0030
:1026300000202000ef000700200498000000e000c8
:1026400005003a0029049800490498008904e8002c
:1026500039049800080037000a60a0000a0c7800ce
:102660004004980001202000808040003104980040
:10267000400c9800500c98000c00070028009000b7
:102680005004980038009000600498000000260074
:10269000180c70000000eb004f0578004f04be00de
:1026a00000000600803f210061003700881f78008d
:1026b000e8bf23001804e00003003a00f9ff070018
:1026c00020c0b300004c78004f04780000000600e2
:1026d000889fbe0000047800080078006fff0700a4
:1026e000800478000004200018006000020032001e
:1026f000280090005a0007000000eb00200498001a
:10270000384090000004e000050035000000fb00a8
:10271000daf807000000e000010032008084eb00de
:10272000181090000000e000080032001ef90700b9
:102730000000e000010032008084eb0018109000df
:10274000470007000000eb0010149800000820006c
:1027500018006000150032000001eb006000b800b6
:1027600063a923000202d00063027a00880f52009e
:1027700005003a00000040008180480000804100d0
:102780000008eb000600370061004000e0804800d0
:102790000201e800e80f5000e08f5800f0ff3a0017
:1027a000080078002e0007000e003700000c7800ab
:1027b00000c0eb0030449800600220000800400098
:1027c000200498004004980050049800400c9800a1
:1027d00060049800500c9800700498007600440043
:1027e000000c9800090078004f04be0000000600ad
:1027f000881f78000004eb006140b800e2ff2f0062
:10280000f3ff2f000801070042aa230062007800ae
:102810000000e00001003200adff07000804e800fe
:10282000e80f5400f4ff3a004f047800000006005f
:10283000010020000100e0000800320001008000db
:102840000100e000050032008100e900010088007d
:102850008100d0000200800000b178000000060076
:102860000000e0002f003200c0017800e38f51002b
:102870002c0036000308a3002a003a00b1e28100d0
:102880000100e00002003200810f5000040031001e
:1028900011009800b0e2890016003700820078002d
:1028a000110190000200e00002003200800f510090
:1028b000faff39001102780084824000850f500031
:1028c00018003900808f520003003a00830842004c
:1028d00001007800070037000200e000030032002a
:1028e00083014000830f51000e0039001200980050
:1028f00090009800900090000100e0000900320074
:1029000010014000828f500006003a0042c52300ab
:102910000009eb00100178001108410091009000bf
:102920001100980000000600889fbe000004780097
:10293000a1e281000100e000020032000100780005
:102940000d003700b1e2810060c5230004003700ac
:10295000910f5400250036000180e800910090009e
:102960000100e000faff3a0010003700920f540017
:102970001e0036000280e800100178000200e0002e
:10298000faff3a0011017800b1e2810060c523002e
:1029900004003700910f5400140036000180e80055
:1029a00091009000828f5000faff3a00c9e2810046
:1029b000888f5400010031008804780009007800f5
:1029c000360007000000e00004003a00888f540041
:1029d000050032008904d100f5ff3700091878009e
:1029e0009fff0700d2ff37000000eb004f04be003e
:1029f00000000600881f7800630440000800a10062
:102a00008000eb00800f540021003600e30f5400db
:102a100001003e004800200008007800c2ff0700c7
:102a20008000eb000000e000190032009000780008
:102a30009101780064815100880f5100030031003a
:102a4000110190000208780007003700088140005b
:102a5000020878009101900013019800100178009d
:102a60001109140088087800100178000000eb00bc
:102a70000200e00004003200920190000300e00038
:102a8000010032000280e800a0e289008180e800b5
:102a9000010078004f0478000000060080007800f4
:102aa0000000eb000100e0000500340001007800a8
:102ab00046f80700e10f400001003a000000eb007b
:102ac0000000060000c0da000000060000c0da00c6
:102ad0000000060000c0da00000006003400f80024
:102ae0003200f8000203be0082027000850272000c
:102af00002f0a6008301e800a301880000f0a60010
:102b00008100e800910188001500b2000c0032003d
:102b1000104978000402e90015003200610141000b
:102b2000020039003420ec0002002800610040005f
:102b3000f7ff39003220ec0000002800f4ff3700d6
:102b4000100978000482e9000900320062014100a6
:102b5000020039003420ec0002002800620040002e
:102b6000f7ff39003220ec0000002800f4ff3700a6
:102b70003200f9003400f9000601be000000060032
:102b80000300e000070032009501800091018800f9
:102b900010427800950188000402fb00820f520069
:102ba000110032008301e900950180009101880045
:102bb00010427800950188000404e000080032000b
:102bc000000278001000b00000026a004260af000e
:102bd00000f0a0000482d2000180b000e8ff3700be
:102be000000020000100200000000600839f680014
:102bf0000100e00002003d0060001000e0801800cd
:102c00000300e00002003d0060011100e0811900b6
:102c100013f807004f00e00002003b0060001000c6
:102c2000e080180000000600020ab900001bb9008d
:102c30000200b8008100420081004300000006004d
:102c4000889fbe008a9fbe0030044200b0844a00c4
:102c500030054b0090854b006000b1000898be0025
:102c60000a90be000440e10005c8e10006d0e10082
:102c700007d8e10002003100680040001008e800b9
:102c80004f05be004f04be0000000600889fbe0036
:102c90008a9fbe003004be002005be000418540008
:102ca00005985c0006185d0007985d001100200083
:102cb0000440e10005c8e10006d0e10007d8e100ca
:102cc000010039008000eb00108810004f05be00a5
:102cd0004f04be00000006001200fa00889fbe00ec
:102ce0008a9fbe008c9fbe00e0b79f00f1b79f0097
:102cf00082bf9f0093bf9f000605be000404be0074
:102d00000000eb00d0b79f00c0b79f00b0b79f0096
:102d1000a0b79f0090b79f00000678005fb19700b2
:102d2000cfb09700820141003fb097000200e00061
:102d300004003d00370007007e805700c0ff0700f9
:102d400003003700330007007e805700cfff0700e5
:102d5000dfb697000d00e0000c0035006fb2970061
:102d6000ffb297000fbb97009fbb97001000200099
:102d7000010020006011b800000272008182720020
:102d800002037300838373001b0007000c06e80036
:102d900001042000810f5600e0ff3a000d00e00022
:102da00004003d000802be000a03be007e805700fa
:102db000a3ff07005fa897000000e00005003a00ad
:102dc0001fb29700afb297003fb39700cfb3970001
:102dd000090007006fb09700ffb097000fb9970088
:102de0009fb997004f06be004f05be004f04be00be
:102df0000080fa0000000600010007000000060045
:102e0000a4b79f00b5b79f00c6b79f00d7b79f0074
:102e1000000006004f09de0082817100b3b79f00f9
:102e20004f01de008180400082807000a1b79f00ca
:102e30008fb097004f09de000000400002007000d4
:102e400090b79f007fa897004f01de00818040006f
:102e50008280700081b79f000d0007004f3ade00ae
:102e60000000400004007000f0af9f000800070061
:102e70000402420085824a0006034b0087834b0010
:102e8000dfff07000802be000a03be0000000600c4
:102e90002fb29700bfb297004fb39700dfb39700f0
:102ea00000000600881f780018002000881f7800a6
:102eb00089ff07008f87e9004f04780000000600b3
:102ec000801feb0084ff07008f87e90000000600e9
:102ed000889fbe008a9fbe00e00f5000e08f580020
:102ee000e00f5900e08f59000c003d006044b8002d
:102ef0006055b8000000540081805c0002015d0054
:102f000083815d00180020001500070008003d00c7
:102f1000180007000004eb00050037000004eb0078
:102f20000f00070002003d001200070018002000fb
:102f3000dcff07000800e000060032006022b80055
:102f40006033b8000000520081805a0002015b002b
:102f500083815b004f05be004f04be0000000600e9
:102f6000e00f5200e08f5a00e00f5b00e08f5b0043
:102f7000000006006044b8006055b8000402540028
:102f800085825c0006035d0087835d00000006000b
:102f9000889fbe008a9fbe008c1f7800e00f500003
:102fa000e08f5800e00f5900e08f59000d003d0000
:102fb0006044b8006055b8000000540081805c0097
:102fc00002015d0083815d001c0020000820e100fb
:102fd00009a8e1000ab0e1000bb8e1000d003d00d6
:102fe000080037000006eb00e00f5200e08f5a00a7
:102ff000e00f5b00e08f5b0006003d006044b8001e
:103000006055b8000402540085825c0006035d0030
:1030100087835d00aaff07000c00e0000600320075
:103020006022b8006033b8000000520081805a006e
:1030300002015b0083815b004f0678004f05be00f4
:083040004f04be000000060071
:020000040000fa
:103048002041000041410000412000002000000014
:1030580000000000204200004242000042420000fe
:10306800200000000000000020430000434300004f
:103078002020000000000000000000004355000070
:10308800535400004f4d00002000000000000000d5
:103098000000000000000000000000000000000028
:1030a800000000002045000045450000454500009f
:1030b80045200000000000002046000046460000b1
:1030c80046460000464600000000000020200000a0
:1030d80020470000474700002020000000000000b3
:1030e80000000000000000000000000000000000d8
:1030f80000000000410000001c22000041410000c7
:10310800417f0000414100004141000041000000b2
:1031180000420000007e00004141000041410000e3
:103128007e41000041410000417e00000000000097
:10313800430000003e4100004140000040400000c4
:1031480040400000414100003e00000000440000f3
:10315800007c00004242000042420000424200005f
:1031680042420000427c00000000000045000000d0
:103178007f400000404000004078000040400000d0
:10318800404000007f00000000460000007f000073
:1031980040400000404000007840000040400000ef
:1031a8004040000000000000470000003e400000d2
:1031b80040400000404700004141000041410000fc
:1031c8003e000000004800000041000041410000ae
:1031d800414100007f4100004141000041410000a1
:1031e80000000000490000003e0800000808000038
:1031f8000808000008080000080800003e00000059
:10320800004a0000000f0000020200000202000055
:103218000202000042420000423c000000000000a0
:103228004b0000004142000044480000506000008c
:10323800504800004442000041000000004c0000db
:1032480000400000404000004040000040400000b6
:1032580040400000407f0000000000004d000000da
:103268004163000055490000414100004141000010
:103278004141000041000000004e000000410000f4
:1032880061510000514900004945000045430000d4
:1032980043410000000000004f0000001c22000015
:1032a800414100004141000041410000412200002d
:1032b8001c00000000500000007e0000414100009a
:1032c800414100007e4000004040000040400000b6
:1032d80000000000510000001c22000041410000d5
:1032e8004141000041410000412200001c0600004d
:1032f80000520000007e00004141000041410000f2
:103308007e500000484400004241000000000000d8
:10331800530000003e41000041400000403e0000d4
:1033280001010000414100003e000000005400007f
:10333800007f0000080800000808000008080000d6
:103348000808000008080000000000005500000000
:10335800414100004141000041410000414100005d
:10336800414100003e0000000056000000410000fe
:103378004141000022220000221400001414000021
:10338800080800000000000057000000414200004b
:1033980041490000494900004949000049550000d9
:1033a8002200000000580000004100002222000016
:1033b8001414000008140000142200002241000028
:1033c80000000000590000004141000022220000d6
:1033d8001414000008080000080800001c00000081
:1033e800005a0000007f00000301000002040000f2
:1033f8000810000020400000607f0000000000006e
:10340800300000003e4300004345000045490000ed
:1034180051510000616100003e00000000310000d1
:1034280000080000182800005808000008080000dc
:1034380008080000087f00000000000032000000bb
:103448003e41000001010000010e00007040000034
:10345800404000007f00000000330000003e0000f4
:1034680041410000010100000e010000014100007f
:10347800413e000000000000340000000206000089
:103488000a120000227f000002020000020200006f
:103498001f00000000350000007f000040400000d1
:1034a800404000007e01000001410000413e000054
:1034b80000000000360000003e41000041400000ce
:1034c800407e000041410000414100003e000000f4
:1034d80000370000007f000001020000040800001f
:1034e80010200000404000004040000000000000a4
:1034f800380000003e41000041410000413e00000c
:1035080041410000414100003e0000000039000038
:10351800003e000041410000414100003f01000021
:1035280001010000413e00000000000020000000f2
:103538000000000000000000000000000000000083
:103548000000000000000000003c00000001000036
:10355800030e00001c380000f03800001c0e0000ac
:1035680003010000000000003e0000004060000071
:10357800381c00000e0f00000e1c00003860000010
:1035880040000000002500000031000052520000f9
:10359800646400000813000013250000254600009d
:1035a800000000003a000000001c00001c1c000085
:1035b800000000001c1c00001c00000000000000af
:1035c800002f0000000100000202000004040000b7
:1035d800081000001020000020400000000000003b
:1035e8002d00000000000000000000003c3c00002e
:1035f800000000000000000000000000000a0000b9
:103608000d000000484500004c4c00004f2e000003
:1036180020530000746100007274000020740000e0
:1036280079700000696e00006732000032320000d5
:103638000a0d00003e20000000520000443900003e
:10364800004c000065660000740a00000d000000d0
:103658005244000031310000005200006967000048
:10366800687400000a0d0000005200004634000093
:1036780000430000656e000074650000720a0000d7
:103688000d000000524400003130000000540000da
:103698007269000067670000657200000a0d00008b
:1036a800000a00000d6300006d6400003d25000065
:1036b800730a00000d3e0000200000005465000061
:1036c8006d70000065720000617400007572000082
:1036d800652000003d200000256400000a0d000060
:1036e800005600006f6c0000746100006765000000
:1036f800202800006d610000783d00003130000096
:1037080032330000292000003d200000256400001d
:103718000a0d000000000000120100000002000075
:103728000200000000080000d80400000a000000a1
:10373800000100000102000003010000090200006e
:10374800430000000201000000c000003209000030
:103758000400000000010000020200000100000057
:1037680005240000001000000104000024020000ed
:1037780002050000240600000001000005240000e6
:10378800010000000107000005810000030a000095
:10379800000200000904000001000000020a000005
:1037a80000000000000700000502000002400000c1
:1037b8000000000007050000820200004000000031
:1037c80000000000040300000904000034030000a6
:1037d8004d00000069000000630000007200000056
:1037e8006f0000006300000068000000690000002e
:1037f8007000000020000000540000006500000078
:1038080063000000680000006e0000006f00000008
:103818006c0000006f0000006700000079000000e5
:1038280020000000490000006e0000006300000056
:103838002e0000001a03000070000000690000005c
:10384800630000002d000000650000007800000003
:10385800700000006c0000006f00000072000000a3
:1038680065000000720000000a030000310000003b
:10387800320000003300000034000000a29b00006a
:10388800e69b0000ea9b00001e9c0000389c00009c
:020000040000fa
:103898000200fa00a2c0a900c6e6a8000080eb005a
:1038a800302b88000080eb00102b88008225ef0069
:1038b800420020008000eb00405820000af5070075
:1038c80020002000f02b88008025ef005e45a9002d
:1038d800f0092000402b8800f0092000202b8800e8
:1038e8005ac5a8006005a80000c023004800de00f3
:1038f800802b88000040eb00004f7800070037005d
:103908001e80fb00c200dd0000c0230000814000d3
:103918006000b8000089be001e4fe8001e40780015
:10392800eb4f5000f6ff36006c25a8006e25ef001f
:103938006ca5a9006c25a90080002000102b880028
:1039480000b823008040eb000148780060b82300ed
:103958008040eb000148780070b823009040780060
:10396800e0c060000148780080b8230090407800eb
:10397800e0c0600001487800102b800068006000fb
:103988000000e000ecff3a0010c0b3005be8b700ad
:1039980010c0b3005ce8b7005d68ef005e68ef0038
:1039a8005568ef000040eb00004f78001500370025
:1039b8001e80fb008000400080b72300008040008c
:1039c8008000eb00010878001e80fb0080004000aa
:1039d80020b72300008040008000eb000108780039
:1039e8001e80fb00b1b823000041eb008270780014
:1039f8001e80fb00e1b823000041eb0082707800d4
:103a08001e4fe8001e407800e24f5000e8ff3600e5
:103a180080c02300c0db8900d0002000102c880063
:103a280010b9230010e0890000c0230081c0b30052
:103a38000148780010c0230041c0b3000148780055
:103a480010c0230010407800804078000174a00066
:103a580010c02300014878004a68ef006028ef0092
:103a68006228ef006468ef004828ef000080fa0041
:103a7800000006000200fa0040428000e10f5000fa
:103a88000b003a00612b80000004200000806000d9
:103a98000000e00006003a000080eb00102b8800d0
:103aa8006405a8006485a800200020004042880022
:103ab800c02a8000700060000000e00007003200ab
:103ac800d02a8000700060000000e000030032008f
:103ad80000012000c02a8800bc040700002b8000d9
:103ae800620060000000e0000200320092c0a900fd
:103af800a1003700102b8000610060000000e0008a
:103b08000a003200202b8000610060000000e00005
:103b1800060032005eff0700a2c0a8004000200097
:103b28004042880010002000102b8800102b8000d5
:103b3800700060000000e00005003200202b8000cb
:103b4800700060000000e0000100320092040700ed
:103b5800c12a800000042000008060000000e0000e
:103b68000300320000042000c02a8800ee06070087
:103b7800102b8000640060000000e0001400320098
:103b8800202b8000640060000000e0000400320088
:103b9800120020008000eb003007200058140700b6
:103ba80040002000102b880059c8bf000004e00026
:103bb8000300320059c8bf000040e90059e8b700c7
:103bc80059c8bf000004e00001003a00a301070043
:103bd800112b800000082000008060000000e00039
:103be80006003200212b80000008200000806000c1
:103bf8000000e000010032004b040700102b800099
:103c0800620060000000e0000c003200202b800001
:103c1800620060000000e00008003200120020008e
:103c28008000eb00f0ff2700351407000080eb0050
:103c3800302b880020002000102b88004042800094
:103c4800e30f500002003e0092c0a9004a0037006e
:103c5800202b8000680060000000e0004500320072
:103c68000040eb00004f78003d003700102b80002b
:103c7800680060000000e0003d003200502b80002a
:103c88000040780056e8b70056c8bf000080fb0027
:103c98004400de000040780057e8b70080002000ac
:103ca800102b880056c8bf00684060000004e00080
:103cb80011003a0057c8bf000081fb008080fb005c
:103cc800e0b82300008040009040780061c06000a8
:103cd8000004a200e1406000e0b8230000004100b9
:103ce800e1c06000104178000204a1008140710029
:103cf800014878001000370057c8bf000081fb005a
:103d08008080fb00b0b8230000804000904078001d
:103d180061c060000004a200e1406000b0b8230068
:103d280000004100e1c06000104178000204a100d9
:103d3800814071000148780057c8bf000004e000c6
:103d480002003a002d040700040037000001eb00d0
:103d58006185200020072000e91307001e4fe800b6
:103d68001e407800e34f5000c0ff360001003700c6
:103d78000000000092c0a9000080fa0000000600c0
:103d88000400fa0020479800314798003e40900010
:103d98000080fb00680060000000e00003003200c3
:103da8008040eb002e4090009b0107003e409000b1
:103db8000080fb00640060000000e00003003200a7
:103dc80011c0b3002e409000930107002158200035
:103dd8002e4090000080fb0000004000008f400053
:103de8001e007800be409000014878000080fa006c
:103df800000006000800fa002047980031479800a4
:103e080022079800634798003e4090000004e000b5
:103e1800070032002e4090000080fb008000400028
:103e280080b7230000804000100f7800060037009c
:103e38002e4090000080fb008000400020b7230047
:103e480000804000100f78001e0078000000e0009d
:103e580002003a000000eb0037003700ae00900087
:103e68001e007800110098001e007800ee409000b7
:103e7800014878001e0078001040900002c4b3008a
:103e8800824060001e007800114098001e007800f3
:103e980010409000804078000134a0001e00780097
:103ea800114098001e007800104090008040780073
:103eb8000174a0001e007800114098003e40900058
:103ec8000004e0000e0032002e4090000080fb004d
:103ed800ae4090008180fb000181400081b7230043
:103ee80081004100910078000120a20000014000fb
:103ef80080b7230000004100010878000d0037005a
:103f08002e4090000080fb00ae4090008180fb00b6
:103f18000181400021b72300810041009100780011
:103f28000120a2000001400020b72300000041004a
:103f3800010878001e0078000080fa0000000600e2
:103f48000400fa0020479800314798002e4090005e
:103f58000004e00017003a007042800081c0b300fe
:103f6800014878007042800011b9230011009800c0
:103f780070428000c1c0b3001140980070428000b8
:103f880071428000914090000174a0001140980097
:103f9800c0db810041c0b30011409800c0db810044
:103fa800c1db8100914090000174a000114098008d
:103fb8002e0037002e4090000080fb0000004000db
:103fc800800078003e4090000080fb0000804000a8
:103fd8004300dd008000780000c02300008f40000f
:103fe8001e00780010409000804078000124a00056
:103ff8001e007800114098001e00780010409000c4
:10400800804078000174a0001e00780011409800dc
:104018002e4090000080fb000000400080007800e7
:104028003e4090000080fb00008040004300dd001f
:10403800e400400000c02300008f40001e0078000c
:1040480010409000804078000124a0001e007800f5
:10405800114098001e0078001040900080407800c1
:104068000174a0001e007800114098000080fa003a
:10407800000006000200fa00004f7800612b800063
:1040880000022000008060000000e00051003200c3
:104098001e80fb008000400080b7230000804000a5
:1040a800100278001e80fb008000400080b72300cb
:1040b80000804000100078001001be0000042000bd
:1040c8000100200082027800030178008001780056
:1040d8000100780083826200000061008000eb002c
:1040e800c000dd00000020000001be006128b8000b
:1040f8000001710081817100028abe001e80fb00f0
:104108008000400080b72300008040001002780043
:104118001e80fb008000400080b723000080400024
:10412800100078001001be000004200001002000eb
:104138000000690081806900008abe001e80fb00c3
:104148009e80fb000181400081b72300810041006f
:10415800910078000120a2000001400080b72300f0
:1041680000004100010878001e80fb00800040002c
:1041780080b7230000804000900078001e80fb007c
:104188000001400080b723000000410010007800c3
:10419800104090000044b200904098001e80fb0040
:1041a8008000400080b72300008040009000780025
:1041b8001e80fb000001400080b723000000410082
:1041c800100078001041900000c4b300004069005e
:1041d800904098000080fa00000006000000fa00f5
:1041e8006c25ef006425ef004828ef000080fa00f6
:1041f800000006000000fa00404280000000e000d5
:1042080014003a006c25ef006425ef002000200020
:10421800f02b88008025ef005e45a900f0092000fa
:10422800402b8800f0092000202b88005ac5a800e0
:10423800a2c0a800010037006c05a800602b800010
:10424800610060000000e000fbff32001000200069
:10425800404288000080fa00000006000000fa00d2
:104268005bc8bf000004a2000004e0003400320074
:1042780010c0b3005be8b7005cc8bf000004a20030
:104288000004e0002e00320010c0b3005ce8b70064
:1042980051c8bf00e24f50000c003a00c0db81005b
:1042a8008040eb0001487800c0db810081c4b30086
:1042b80011409800c0db8100c1db81009140900073
:1042c8000174a000114098001d00370051c8bf00bc
:1042d800e14f50001a003a005868ef006042800031
:1042e80081c0b300014878006042800011b9230002
:1042f800110098006042800041c0b300114098004e
:104308006042800061428000914090000174a000ea
:104318001140980010c0b30058e8b7007042800000
:1043280081c0b300014878007042800011b92300b1
:10433800110098007042800001c8b3001140980035
:104348000080fa00000006000000fa005d68ef0037
:104358005e68ef0051c8bf00e24f50000f003a00fe
:104368007042800081c0b30001487800704280002c
:1043780091b92300110098007042800081c4b300f5
:104388001140980070428000714280009140900076
:104398000174a000114098001d00370070b9230077
:1043a8001080fb0081b923009180fb00c808dd0064
:1043b800010070008000780010dc8100808f5000c0
:1043c8000700310070b923001080fb0081b9230079
:1043d8009180fb00c808dd000100700010dc890036
:1043e80096000700c0db810091b9230011009800f6
:1043f800c0db810081c4b30011409800c0db81009c
:10440800c1db8100914090000174a0001140980028
:104418000080fa00000006000400fa002047980017
:104428003147980000c02300000f78002e4090000c
:104438000080fb0000004000800078003e409000b3
:104448000080fb00008040004300dd001e0f40009c
:104458001e0078009000780001f0a10001087800a3
:104468003e4090000004e00007003a002e40900013
:104478000080fb008000400020b72300008040003f
:104488001e087800060037002e4090000080fb00d0
:104498008000400080b72300008040001e0878009c
:1044a8001e0078009000780001e0a1000108780063
:1044b8009e007800648040009000780001e0a00031
:1044c800010878000080fa00000006000000fa00e9
:1044d8006ca5a90001dc81000008200000806000b4
:1044e8000000e00027003a0060b823009040780000
:1044f80000c8b30000c060000004e0000a003200f9
:1045080020c0b30051e8b7005ec8bf000004a20095
:104518000004e000010032008bff07005c68ef0038
:104528005b68ef00430037007042800081c0b30031
:10453800014878007042800011b9230011009800ea
:1045480070428000c1c0b3001140980070428000e2
:1045580071428000914090000174a00011409800c1
:10456800c0db810041c0b30011409800c0db81006e
:10457800c1db8100914090000174a00011409800b7
:104588002c00370010b923009040780000c8b30011
:1045980000c060000004e0000f00320010c0b3004b
:1045a80051e8b7005dc8bf000004a2000004e000a5
:1045b8000100320064ff07005c68ef005b68ef00f1
:1045c8005ac8bf000004a2000004e000190032002d
:1045d80022ff07001700370020c0b30051e8b700da
:1045e8007042800081c0b3000148780070428000aa
:1045f80011b92300110098007042800041c0b30037
:1046080011409800704280007142800091409000f3
:104618000174a000114098005c68ef005b68ef002f
:104628005ac8bf000004a2000004e00001003200e4
:104638000aff07000080fa00000006000200fa00e6
:1046480080c0b300004f780010dc8100e70f5000f5
:104658000d003e0010dc8100004f780050c8bf00fc
:104668000004e00003003a0010c0b30050e8b700af
:104678000500370050c8bf00e14f500002003a0063
:1046880020c0b30050e8b70011dc81001e80fb0099
:104698000080500010dc8900c0db81001e487800d3
:1046a80090b923009042880000dc8100610060001e
:1046b8000000e00017003a0009003700914280002e
:1046c800f0db810010417800824878008100e80022
:1046d800914288000000e800f0db89001e4fe900e5
:1046e8001e4078000004e000f4ff3a000c00370098
:1046f80091428000f0db8100104178008248780008
:104708008100e800914288000000e800f0db8900a1
:104718001e4fe9001e4078000004e000f4ff3a0054
:104728000080fa00000006000200fa0060428000e3
:10473800104f78009e80fb0070b823001080fb00ab
:1047480082b823001281fb004811dd0002007000ce
:10475800808f50000700360070b823001080fb00df
:1047680081b823009180fb00c808dd0001007000bb
:10477800004f780070b823001080fb0081b8230038
:104788009180fb00c808dd000100700080007800ff
:104798001e80fb0000805000f10f20000101600026
:1047a80071b8230091417800e0c1610002c1710035
:1047b80082487800c800de0080b8230010417800e5
:1047c8006041610081407100014878000040eb00c1
:1047d800104798001c00370040b823001080fb00e9
:1047e80051b823009180fb00c808dd00010070006b
:1047f8009e4090008180fb0092b92300e2c07800bf
:10480800014878000000e800f10f20000101600075
:1048180041b8230091417800e0c1610002c17100f4
:1048280082487800c800de0050b8230010417800a4
:104838006041610081407100014878001e4090008d
:104848000040e800104798001e4090009e4f50001e
:10485800e1ff390070b823001080fb0081b8230005
:104868009180fb00c808dd00010070000000e00036
:104878001e0032007042800081c0b30001487800f9
:104888007042800091b923001100980060428000b6
:104898009000780000002400008060000000e00024
:1048a80009003a007042800081c4b30011409800aa
:1048b8007042800071428000914090000174a00015
:1048c800114098002f0037007042800081c0b3006b
:1048d8001140980070428000714280009140900021
:1048e8000174a00011409800260037007042800033
:1048f80081c0b300014878007042800011b92300dc
:10490800110098007042800041c0b3001140980027
:104918007042800071428000914090000174a000b4
:104928001140980090b823001080fb00a1b8230024
:104938009180fb00c808dd00010070000000e00065
:104948000700320090b823001080fb00a1b82300b4
:104958009180fb00c808dd00010070000000010024
:1049680060b82300904078000174a10001487800e5
:104978005ac8bf000004a2000004e0000100320091
:1049880036fe07000080fa00000006000200fa0068
:1049980000dc81000070a00000dc890042002000db
:1049a8008000eb0040582000cff0070002032000f1
:1049b8008000eb0000c02300cbf007006c25a800a6
:1049c8000040eb00004f7800090037001e80fb0014
:1049d800b1b823000041eb00827078001e80fb0014
:1049e800e1b823000041eb00827078001e4fe80018
:1049f8001e407800e24f5000f4ff360022002000ed
:104a08008000eb0000b72300b7f007006c25a90071
:104a180080c02300c0db890000c0230060428800fa
:104a2800604280007042880030b92300104078004e
:104a38004ae8b7004ac8bf000004e00003003a0093
:104a480000012000404288000600370012002000c4
:104a5800a184200010002000a910070000022000f7
:104a6800404288000080fa00000006000000fa00ba
:104a780010b923009040780000c8b30080cf5000e0
:104a880047003a0000b8230001ccb3000148780081
:104a980040b92300104078000080fb00e20f50006e
:104aa80009003200e30f500023003200e10f5000ec
:104ab80037003a0000b92900f0db89002001200006
:104ac80010dc89003600370030b923001040780028
:104ad8000004e00014003a0030b9230010407800c8
:104ae8000080fb00000040008000780020c42900fe
:104af8000080400010007800f0db8900f0db8100c6
:104b08000080e8009040780020b823000148780031
:104b1800f0db8100630040009040780030b823004b
:104b2800014878001e00370000b823008040eb00e1
:104b3800014878001a00370030b923001040780087
:104b4800e34f50000e003e0030b9230010407800bb
:104b58000080fb00000040008000780040c429006d
:104b68000080400010007800f0db8900f0db810055
:104b7800104078000080fb0010dc89000800370036
:104b880000b823008040eb0001487800040037009b
:104b980000b823008040eb000148780000000000c6
:104ba8000080fa00000006000200fa0090b9230015
:104bb8008040eb0001487800a0b923008040eb005a
:104bc8000148780010b92300904078007fc0600049
:104bd8000080fb00e10f500011003200e20f50008e
:104be800130032000000e00040003a0000dc8100c1
:104bf8000070a00000dc890054c8bf000004e00079
:104c08003500320090b923001040780080407800c9
:104c18000114a00090b92300014878003300370040
:104c280000dc81000070a00000dc89002f00370044
:104c380000dc81000070a00000dc890050b923006e
:104c48009040780000c8b30000c060000004e00095
:104c580009003a0050b92300904078006fc0600006
:104c68000080fb008000400020b723000080400047
:104c7800100f78000800370050b9230090407800e2
:104c88006fc060000080fb008000400080b72300f8
:104c980000804000100f78001e0078009000780017
:104ca80000002800008060000000e0000c003200d6
:104cb8001e0078009000780000402000008060000e
:104cc8000000e0000800320090b9230011c0b300d2
:104cd8000148780005003700000000000300370095
:104ce80000000000010037000000000001dc810026
:104cf80000082000008060000000e000080032008a
:104d080090b92300f0db890000dc81000000a000de
:104d180000dc890020b8230021c0b30001487800d6
:104d28000080fa00000006000000fa00102c800045
:104d3800620060000000e000130032006042800062
:104d48009040900000c8b30080cf50000d003a009a
:104d5800c0db81009040900040c8b30080cf500075
:104d680008003a0060428000c1c0b30011409800ba
:104d78006042800061428000914090000174a00070
:104d8800114098008225a90000082000102b8800f7
:104d98000080fa00000006000000fa005a85a8000a
:104da80000012000102b880010c0b30055e8b700a0
:104db8006468ef000001eb008000eb005007200062
:104dc800cf0f07000080fa00000006000000fa007c
:104dd8005568ef000001eb008000eb004007200061
:104de800c70f07005a85a90000012000c02a8800c3
:104df8006468ef000080fa00000006000000fa0076
:104e0800d0c2b30059e8b70056c8bf000080fb0005
:104e18000020a1000000e0001f003a0056c8bf00b3
:104e28000080fb004200de00004078000080fb00ac
:104e3800c200dd0000c023000080400060428800fe
:104e48006042800070428800704280000020a2000a
:104e580070428800604280009000780000c0230003
:104e68008080600000402300808f500008003a00d6
:104e780060428000100090008200200080007800ce
:104e880010b9230091ef07000b0007000800370056
:104e98003d0007000600370056c8bf000080fb0031
:104ea8000020a100e80f500001003a00530007005d
:104eb8000080fa00000006000000fa005068ef00c9
:104ec8005a68ef005d68ef005e68ef005868ef0011
:104ed8005168ef00c0db8100c1db81009140900088
:104ee8000174a10011409800c0db81000020a200dd
:104ef800c0db8900c0db8100c1db810091409000ec
:104f08000174a10011409800c0db81000020a200bc
:104f1800c0db89007042800071428000914090009f
:104f28000174a1001140980000b823008040eb00f4
:104f3800014878000000eb0010dc890060b823000d
:104f48008040eb000148780070b82300904078005a
:104f5800e0c060000148780080b8230090407800e5
:104f6800e0c0600001487800820007000001eb0003
:104f78008000eb0030002000610f070053fd0700a0
:104f88000080fa00000006000000fa0051c8bf00c7
:104f9800e24f500002003a00e3fd07001500370019
:104fa8005168ef0058c8bf000004a2000004e000e8
:104fb8000f0032007042800081c0b30001487800c1
:104fc8007042800011b923001100980070428000df
:104fd800c1c0b30011409800704280007142800047
:104fe800914090000174a000114098000100370022
:104ff8005868ef000080fa00000006000200fa007e
:10500800c0db8100100078004e00de0061406000c7
:10501800004f7800c0db81000020a200c0db8900bf
:1050280040428000e80f50000e003a0030b92300db
:10503800104078008080fb00f007200000806000ae
:10504800702b8800702b80000000e0000300320005
:105058000001200040428800020037004000200084
:105068004042880051c8bf00e14f500025003a0077
:10507800c0db810091b92300110098006ffd070083
:1050880050c8bf00e24f500009003a00c0db810061
:1050980041c0b30011409800c0db8100c1db810032
:1050a800914090000174a000114098002f00370033
:1050b8001e4078000004e00009003a00c0db8100cf
:1050c80081c4b30011409800c0db8100c1db8100be
:1050d800914090000174a00011409800230037000f
:1050e800c0db810081c0b30011409800c0db8100a3
:1050f800c1db8100914090000174a000114098002c
:105108001a00370060b823009040780000c8b30048
:1051180000c060000004e0001300320090b82300d3
:105128001080fb00a1b823009180fb00c808dd00b7
:10513800010070000000e0000700320090b8230072
:105148001080fb00a1b823009180fb00c808dd0097
:10515800010070000000010060b823009040780052
:105168000174a100014878005168ef000080fa003e
:10517800000006000000fa0010b923001040780073
:105188000046b2000004e00050003a0020b92300b5
:10519800104078000080fb00cf80de00b2002000c5
:1051a80003002000820f5000838f580049003e0002
:1051b8000060010021003700220037004700370057
:1051c8002000370045003700060037000b00370085
:1051d800390037000d0037000a0037001b00370080
:1051e8002a00370000dc81000070a00000dc890084
:1051f8008000200040428800390037001bfe07006d
:1052080037003700e1fd070035003700a084200093
:10521800f0db890000dc81000000a00000dc8900d0
:1052280020b8230011c0b3000148780000dc8100d9
:105238000070a00000dc8900290037005afe070032
:1052480027003700280007002500370050b9230041
:10525800104078008080fb0000b7230000804000e9
:10526800f0db890000dc81000000a00000dc890080
:1052780020b8230011c0b3000148780000dc810089
:105288000070a00000dc89001500370000dc8100f8
:105298000070a00000dc890050b92300104078009d
:1052a8000080fb0031b923001141780001b72300c9
:1052b800827078000a0037000001eb008000eb00e4
:1052c800200020008e0e07000500370000000000b7
:1052d8000300370000000000010037000000000054
:1052e8000080fa00000006000600fa0030b923002a
:1052f80010407800e14f500010003a0010b9230028
:10530800104078007f4060000004e0000b003a0085
:1053180000dc81000070a00000dc890020b92300b7
:1053280010407800e34f500003003a0010c0b3006b
:1053380054e8b700010037005468ef0030b9230083
:10534800104078000004e000f5003a0010b923008e
:10535800104078007f406000e24f5000f0003a00b3
:1053680050b92300104078006f4060000004e0004e
:10537800eb00320050b92300904078006fc0600005
:105388000080fb00e20f5000e5003c004142800035
:1053980000022000808f5000e1003a0000dc81000c
:1053a8000070a00000dc890050b92300904078000c
:1053b80000c8b30000c060000004e00010003a001c
:1053c80050b92300104178006f4061000080fb0055
:1053d8008000400020b7230000804000100f7800b4
:1053e80050b92300904078006fc060000080fb0037
:1053f800e1b8230061407800404798000f0037006b
:1054080050b92300104178006f4061000080fb0014
:105418008000400080b7230000804000100f780013
:1054280050b92300904078006fc060000080fb00f6
:10543800b1b8230061407800404798004e40900082
:10544800614060000004e00004003a001e0078009b
:105458000020a100000f7800030037001e0078002c
:105468000020a000000f780050b923009040780079
:1054780000c8b30000c060000004e0000a003a0061
:1054880050b92300104178006f4061000080fb0094
:105498009e0078000001400020b723000000410072
:1054a800010878000900370050b9230090407800bf
:1054b8006fc060000080fb009e0078000001400083
:1054c80080b72300000041000108780020b92300bc
:1054d80010407800e34f50002c003a001e0078007e
:1054e8009000780000002800008060000000e000c4
:1054f8001900320050b923009040780000c8b3006a
:1055080000c060000004e0000a003a0050b923001f
:10551800104178006f4061008080fb00e0b82300f4
:1055280000804000904078000114a00001487800f5
:105538000900370050b92300904078006fc0600020
:105548008080fb00b0b823000080400090407800c5
:105558000114a000014878001e0078001040900057
:10556800804078000124a0001e00780011409800b7
:105578001e00780010409000804078000174a00060
:105588001e00780011409800650037001e00780062
:105598000020a200000f78001e007800900078001c
:1055a80000002800008060000000e00011003200c8
:1055b8001e00780010409000804078000174a1001f
:1055c8001e007800114098001e00780010409000de
:1055d800804078000164a0001e0078001140980007
:1055e800220020009e00780050002000c40d070013
:1055f800060037001e0078001040900080407800b8
:105608000164a0001e007800114098001e00780078
:105618000020a200000f78004e4090006240600019
:105628000004e00006003a001e00780090007800b0
:1056380000002800008060000000e0002400320024
