:020000040000fa
:080000000001040000000000f3
:020000040000fa
:0400080004020000ee
:020000040000fa
:04000c0046020000a8
:020000040000fa
:040010008602000064
:020000040000fa
:0400140024020000c2
:020000040000fa
:04001800660200007c
:020000040000fa
:04001c00f6040000e6
:020000040000fa
:04002000f6040000e2
:020000040000fa
:04002400f6040000de
:020000040000fa
:04002800f6040000da
:020000040000fa
:04002c00f6040000d6
:020000040000fa
:04003000f6040000d2
:020000040000fa
:04003400f6040000ce
:020000040000fa
:04003800f6040000ca
:020000040000fa
:04003c00f6040000c6
:020000040000fa
:04004000f6040000c2
:020000040000fa
:04004400f6040000be
:020000040000fa
:04004800f6040000ba
:020000040000fa
:04004c00f6040000b6
:020000040000fa
:04005000f6040000b2
:020000040000fa
:04005400f6040000ae
:020000040000fa
:04005800f6040000aa
:020000040000fa
:04005c00f6040000a6
:020000040000fa
:04006000f6040000a2
:020000040000fa
:04006400f60400009e
:020000040000fa
:04006800f60400009a
:020000040000fa
:04006c00f604000096
:020000040000fa
:04007000f604000092
:020000040000fa
:04007400f60400008e
:020000040000fa
:04007800f60400008a
:020000040000fa
:04007c00f604000086
:020000040000fa
:04008000f604000082
:020000040000fa
:04008400f60400007e
:020000040000fa
:04008800f60400007a
:020000040000fa
:04008c00f604000076
:020000040000fa
:04009000f604000072
:020000040000fa
:04009400f60400006e
:020000040000fa
:04009800f60400006a
:020000040000fa
:04009c00f604000066
:020000040000fa
:0400a000f604000062
:020000040000fa
:0400a400f60400005e
:020000040000fa
:0400a800f60400005a
:020000040000fa
:0400ac00f604000056
:020000040000fa
:0400b000f604000052
:020000040000fa
:0400b400f60400004e
:020000040000fa
:0400b800f60400004a
:020000040000fa
:0400bc00f604000046
:020000040000fa
:0400c000f604000042
:020000040000fa
:0400c400f60400003e
:020000040000fa
:0400c800f60400003a
:020000040000fa
:0400cc00f604000036
:020000040000fa
:0400d000f604000032
:020000040000fa
:0400d400f60400002e
:020000040000fa
:0400d800f60400002a
:020000040000fa
:0400dc00f604000026
:020000040000fa
:0400e000f604000022
:020000040000fa
:0400e400f60400001e
:020000040000fa
:0400e800f60400001a
:020000040000fa
:0400ec00f604000016
:020000040000fa
:0400f000f604000012
:020000040000fa
:0400f400f60400000e
:020000040000fa
:0400f800f60400000a
:020000040000fa
:0400fc00f604000006
:020000040000fa
:04010000f604000001
:020000040000fa
:04010400f6040000fd
:020000040000fa
:04010800f6040000f9
:020000040000fa
:04010c00f6040000f5
:020000040000fa
:04011000f6040000f1
:020000040000fa
:04011400f6040000ed
:020000040000fa
:04011800f6040000e9
:020000040000fa
:04011c00f6040000e5
:020000040000fa
:04012000f6040000e1
:020000040000fa
:04012400f6040000dd
:020000040000fa
:04012800f6040000d9
:020000040000fa
:04012c00f6040000d5
:020000040000fa
:04013000f6040000d1
:020000040000fa
:04013400f6040000cd
:020000040000fa
:04013800f6040000c9
:020000040000fa
:04013c00f6040000c5
:020000040000fa
:04014000f6040000c1
:020000040000fa
:04014400a60200000f
:020000040000fa
:04014800f6040000b9
:020000040000fa
:04014c00f6040000b5
:020000040000fa
:04015000f6040000b1
:020000040000fa
:04015400f6040000ad
:020000040000fa
:04015800f6040000a9
:020000040000fa
:04015c00f6040000a5
:020000040000fa
:04016000f6040000a1
:020000040000fa
:04016400f60400009d
:020000040000fa
:04016800f604000099
:020000040000fa
:04016c00f604000095
:020000040000fa
:04017000f604000091
:020000040000fa
:04017400f60400008d
:020000040000fa
:04017800f604000089
:020000040000fa
:04017c00f604000085
:020000040000fa
:04018000f604000081
:020000040000fa
:04018400f60400007d
:020000040000fa
:04018800f604000079
:020000040000fa
:04018c00f604000075
:020000040000fa
:04019000f604000071
:020000040000fa
:04019400f60400006d
:020000040000fa
:04019800f604000069
:020000040000fa
:04019c00f604000065
:020000040000fa
:0401a000f604000061
:020000040000fa
:0401a400f60400005d
:020000040000fa
:0401a800f604000059
:020000040000fa
:0401ac00f604000055
:020000040000fa
:0401b000f604000051
:020000040000fa
:0401b400f60400004d
:020000040000fa
:0401b800f604000049
:020000040000fa
:0401bc00f604000045
:020000040000fa
:0401c000f604000041
:020000040000fa
:0401c400f60400003d
:020000040000fa
:0401c800f604000039
:020000040000fa
:0401cc00f604000035
:020000040000fa
:0401d000f604000031
:020000040000fa
:0401d400f60400002d
:020000040000fa
:0401d800f604000029
:020000040000fa
:0401dc00f604000025
:020000040000fa
:0401e000f604000021
:020000040000fa
:0401e400f60400001d
:020000040000fa
:0401e800f604000019
:020000040000fa
:0401ec00f604000015
:020000040000fa
:0401f000f604000011
:020000040000fa
:0401f400f60400000d
:020000040000fa
:0401f800f604000009
:020000040000fa
:0401fc00f604000005
:020000040000fa
:10020000cf8420000eff27000e01880000000000b0
:10021000000020000000e000020032000001200089
:100220002002880014000700f20107000000e0002f
:1002300003003a00c08f20000100200002003700b8
:100240000000200001002000810f7000010032003a
:1002500014000700000020000000e000020032004f
:1002600000000200000000001c0702000000000067
:100270000040da000000fe004440a90020002000f9
:100280000000e00003003200100020009001880010
:100290004440a800000006008a1f78008b1f7800e9
:1002a00000000600a1028800800478000000eb0036
:1002b0001f003700e284440054a0b4009905ba003e
:1002c000e284440054a0b4009906ba00e2844400d9
:1002d00054a0b4000006eb00476fde00fd07b2003b
:1002e000ae018800636ce10003003a00eaff0700fa
:1002f0000000eb000e003700606ce10008003a00df
:10030000004deb000a05e800020039003420ec0043
:100310000af0a0008b05e900f9ff3e000400370059
:100320006168e100010032000086eb000b0007006d
:1003300019c7ba001905ba000e04e00003003a001c
:100340000a00e000dbff3a0000000600fe07b200f2
:10035000ae0288008a047800f5ff37000cd0a300b5
:10036000e20f4d001c00390089027800354dba00bb
:100370000a05e800020039003420ec000af0a00071
:100380008b05e9000f003200254dba000a05e80090
:10039000020039003420ec000af0a0008b05e900cf
:1003a000080032000c00e0000600320015cdba0053
:1003b0000a05e800020039003420ec000af0a00031
:1003c0008b05e9008984e80054a0b4000b00e0002c
:1003d000e2ff3a00000006009902ba00055d7800cd
:1003e0008b05e900f7ff3200c82ade00055d7800c2
:1003f0008b05e900f3ff32000c00e000f1ff320052
:1004000019ddba00eeff37003600f800809fbe000d
:10041000829fbe00849fbe00869fbe000000fa003f
:100420008020a9000000eb008e0307000080fa0086
:100430004f03be004f02be004f01be004f00be0082
:100440003600f900004006003600f800809fbe002c
:10045000829fbe00849fbe00869fbe000000fa00ff
:10046000850307008040a900100020007d030700dd
:100470000080fa004f03be004f02be004f01be00d5
:100480004f00be003600f900004006003600f800bc
:10049000809fbe00829fbe00849fbe00869fbe00dc
:1004a0000000fa008060a900200020006d03070012
:1004b0000080fa004f03be004f02be004f01be0095
:1004c0004f00be003600f900004006003600f8007c
:1004d000809fbe00829fbe00849fbe00869fbe009c
:1004e0000000fa008080a900300020005d030700b2
:1004f0000080fa004f03be004f02be004f01be0055
:100500004f00be003600f900004006003600f8003b
:10051000809fbe00829fbe00849fbe00869fbe005b
:100520000000fa008600a900700020004d030700bb
:100530000080fa004f03be004f02be004f01be0014
:100540004f00be003600f900004006003600f800fb
:10055000809fbe00829fbe00849fbe00869fbe001b
:100560000000fa0090e0a900f125800000082000ba
:10057000008060000000e00008003200bee4a90036
:100580000828ef0070408000200090008000eb0001
:10059000010878000e28ef000d0137004040800070
:1005a0008000eb00b200200003002000820f50000a
:1005b000838f5800fc003e00006001000b003700f4
:1005c00039003700750037009c003700f300370012
:1005d000c8003700d9003700f0003700db003700d3
:1005e000f100370034003700500037000080200051
:1005f00020009000620060000000e000f3003a007c
:1006000000802000100090007040880000802000d2
:1006100010009000104078000ae8b7000080200029
:1006200010009000100090006040880000802000c2
:1006300010009000e60040000080200011009800ab
:10064000008020009000900000842000808f5000e7
:1006500003003a0000802000a183200011009800d0
:1006600000802000a00090000100a100210098005f
:100670000080200090009000008020001000780092
:10068000808f500004003a0000802000a0009000fd
:100690000110a00021009800ba04a800200020004a
:1006a00040408800ca003700ba24a800200020007b
:1006b00040408800c6003700f12580000000280077
:1006c000008060000000e000080032000080200090
:1006d000604090008040e800008020006140980069
:1006e00040002000f7000700b9003700804080007c
:1006f0008000d100f00f200000806000b02588004d
:100700008040800061006000004078000004e0004c
:1007100003003200b000200040408800ac003700e9
:100720003000200040408800a9003700f1258000fb
:1007300000002800008060000000e0000800320097
:1007400000802000604090008040e8000080200091
:100750006140980040002000da0007009c0037004c
:10076000ba24a800804080004800de00e600600057
:10077000000f200001007000804088008040800051
:100780000000a0008040880010c0b30012e8b7004d
:1007900020002000404088008d00370012c8bf00b4
:1007a000e14f50000a0032006040800010007800e5
:1007b000804088006040800020009000a0408800b9
:1007c000604080002040900016e8b700010037002c
:1007d0001268ef0081408000f00f2000808f5000f1
:1007e00009003600804080004800de00e60060001e
:1007f000000f200001007000b0258800a00020003c
:10080000404088007200370080408000b02588009a
:100810008040800061006000004078000004e0003b
:10082000030032005000200040408800680037007c
:10083000300020004040880065003700f12580002e
:1008400000002800008060000000e0000900320085
:1008500000802000604090008040e8000080200080
:1008600061409800bfe4a9005000200095000700f7
:100870005700370016c8bf008080fb008100e900e8
:10088000cf08de00814078000040e90016e8b7009c
:100890000104e0001000320060408000660040006b
:1008a000604088000ac8bf000040e9000ae8b700bd
:1008b0000ac8bf000004e00003003a002000200046
:1008c0008000070042003700ba24a8002000200062
:1008d000404088003e003700a040800090407800f3
:1008e0008180fb00b12588000000e800a04088005e
:1008f00037003700f12580000000280000806000ec
:100900000000e000090032000080200060409000fc
:100910008040e800008020006140980040002000f6
:1009200068000700bfe4a90029003700ba64a800e6
:100930008000200040408800250037008000200013
:1009400040408800ba64a80021003700a040800021
:10095000a125800081407800014878000000e8006f
:10096000a040880016c8bf000040e90016e8b700a4
:1009700016c8bf000004e00004003200baa4a900b9
:10098000600020004040880002003700baa4a800a0
:100990003b000700ba84a8000d00370020002000ab
:1009a000480007000a0037000080200060409000e7
:1009b0008040e80000802000614098006000200036
:1009c00040000700000000000100370000000000a8
:1009d0000080fa004f03be004f02be004f01be0070
:1009e0004f00be003600f900004006000040da006b
:0809f0000000fe0000000500fc
:020000040000fa
:1009f8000000fa0000802000a18320001100980068
:100a080000802000a18320000108780000802000d9
:100a1800a00090000110a000210098000080200094
:100a2800a00090000100a100210098000080200093
:100a38008040eb006140980020012000c02588001c
:100a480000002800d0258800be24ef0090e0a9000f
:100a5800a0e0a8000080fa00000006000200fa00ea
:100a680000802000e0409000014f78001e40780090
:100a78000080fa00000006000000fa0060408000d4
:100a880066004000604088000ac8bf000040e900d6
:100a98000ae8b7000ac8bf000004e00003003a00f3
:100aa800400020004040880002003700100020006d
:100ab800404088000080fa00000006000200fa00aa
:100ac800000f7800ba44a800704080002000900011
:100ad8000000e00003003200704080002000900019
:100ae8001e0878000828ef000080fa0000000600c1
:100af8000800fa00000f78002147980022079800a4
:100b080033079800008020002000900061006000fa
:100b18000000e0000a003a00ae0190002e4190006b
:100b28009e00780060842000770007003e01900056
:100b38006184200010c0b3001f00070003003700c5
:100b48003e0090008000eb00010878000080fa0069
:100b5800000006000800fa00000f780021479800fe
:100b6800220798003307980000802000200090009a
:100b7800610060000000e0000a003a00ae01900049
:100b88002e4190009e007800008420004600070057
:100b98003e0190000184200010c0b3000600070049
:100ba800030037003e0090008000eb000108780049
:100bb8000080fa00000006000600fa00004f7800e6
:100bc800110798002207980000802000200090005c
:100bd800610060000000e0002e003a002e00900046
:100be8001100200001087800008020001000780023
:100bf8009e009000110098000080200010007800ee
:100c08001e4878000080200010007800ae00900098
:100c1800210098000080200010007800e6004000c5
:100c280000802000010878000080200090007800f3
:100c380000842000808f500003003a0000802000cc
:100c4800a18320000108780000802000a000900007
:100c58000110a10021009800008020009000900061
:100c68000080200010007800808f500004003a00b7
:100c780000802000a00090000100a0002100980042
:100c8800404080000000e00005003a0090e0a80025
:100c9800030037002e0090008000eb000108780068
:100ca8000080fa00000006000800fa00000f780033
:100cb8001107980042479800330798003e009000bb
:100cc80000004000800078001e00780001087800cd
:100cd8001e00780010007800800078000100a00055
:100ce8001e007800010878001e007800ce409000b1
:100cf800214098001e0078009e0090002100980076
:100d08000080fa00000006000800fa00000f7800d2
:100d18001107980042479800330798003e0090005a
:100d280000004000800078001e007800010878006c
:100d38001e007800ce409000214098001e007800e8
:100d48009e009000210098000080fa000000060034
:100d58000000fa000080200020009000620060007f
:100d680000f0a7000000ea000000ea004f00de00e3
:100d7800004078000080fa00000006000000fa0039
:100d880000802000200090006100600000f0a700b3
:100d98000000ea000000ea004f00de000040780092
:100da8000080fa00000006000000fa0083e0a800b6
:100db80000000000000000000080fa0000000600ab
:100dc8000600fa000040eb002047980010c0b3006e
:100dd800004f7800e40047000e80e80081017800a9
:100de800d20420009e40780041ff07000000000068
:100df8002e009000e10f5000fdff3200e400470094
:100e08000e00e80081017800d20420009e4078009e
:100e180050ff0700000000002e009000e10f500076
:100e2800fdff32001e4090000080fa00000006001e
:100e38000600fa0015010700dbff07006000b80094
:100e4800008fbe00b03580004800de0061406000c1
:100e58000004a200614060000080fb0061006000a7
:100e68004800dd00b13580000180a100010070005c
:100e7800b035880001003700000000006000b800ad
:100e8800008fbe000400370012002000030020007d
:100e98001e0f41005e974900f069280011002000ec
:100ea8001e01be00800f5100818f5900f6ff3600e9
:100eb800e0368000610060000000e00003003a00b6
:100ec800b706a800dfa6a900ecff3700403680006f
:100ed800640060000000e00003003a00b706a900c3
:100ee800dfa6a800e5ff37000135800000042000d8
:100ef800008060000000e00003003a00b706a80088
:100f0800dfa6a800ddff3700203380006100600005
:100f18000000e00019003a00b03580004800de000b
:100f2800614060000004a200614060000080fb0096
:100f3800610060004800dd00b13580000180a1003b
:100f480001007000b0358800f03680004d00de00ea
:100f5800614060000004a200614060000080fb0066
:100f6800610060004d00dd00f136800001d0a10075
:100f780001007000f0368800c0ff3700a0358000ff
:100f8800640060000000e0001e003a00b0358000f8
:100f98004800de00614060000004a200614060007b
:100fa8000080fb00610060004800dd00b135800072
:100fb8000180a10001007000b0358800a1358000d3
:100fc80000102000008060000000e000aaff32004e
:100fd800f03680004d00de00614060000004a20091
:100fe800614060000080fb00610060004d00dd0092
:100ff800f136800001d0a10001007000f0368800b1
:101008009eff37006eff0700404798004e40900053
:10101800f04f5000050034004e409000f64f50004d
:1010280002003c0010002000010037000000eb0027
:10103800504798005e4090000004e0000200320033
:10104800b706a80001003700b706a900f0368000ef
:101058004d00de00614060000004a20061406000b5
:101068000080fb00610060004d00dd00f13680006b
:1010780001d0a10001007000f03688007fff370022
:101088000000fa006626ef007a26ef008e26ef00b1
:10109800a226ef00b626ef00ca26ef00de26ef00f4
:1010a800f06f2c00103388000080eb00b03388000c
:1010b800e0012700503488000080eb00f0348800fd
:1010c800f02f200090358800f01b23003036880070
:1010d800f03c2d00d03688007426ef008826ef00fb
:1010e8009c26ef00b026ef00c426ef00d826ef00bc
:1010f800ec26ef007226ef008626ef009a26ef0016
:10110800ae26ef00c226ef00d626ef00ea26ef0053
:101118006826ef007c26ef009026ef00a426ef005b
:10112800b826ef00cc26ef00e026ef00006c200088
:1011380050338800c0ff2f00f033880000012200e0
:1011480090348800000820003035880000212000f5
:10115800d0358800003c2000103788000080fa0055
:10116800000006000000fa000000230010088800b4
:101178000621ef006821ef006a21ef000821ef0047
:1011880000702000500888000c21ef000e21ef00ad
:101198007821ef007a21ef007c21ef007e21ef001b
:1011a8008021ef008221ef008421ef008621ef00eb
:1011b8000001eb0080072000a10920001310200087
:1011c8008049780081497800824978000001eb0065
:1011d8006004200071052000031020008049780079
:1011e80081497800824978000080fa0000000600f2
:020000040000fa
:1011f8001a08000020000000800000001808000005
:101208000200000082000000ffff00003a08000012
:101218001200000080000000000800001800000014
:0812280080000000000000003e
:020000040000fa
:101230000000fa0051068000f0ff280000806000e6
:1012400000c0a0005006880051068000f08f2f00db
:10125000008060000080a000500688000080fa0036
:10126000000006000200fa00000f78009e007800df
:10127000c1408800ffff37000000fa00a081200075
:101280008007780020832000000188000080fa0099
:10129000000006000000fa007bff0700b3ff070014
:1012a000e3ff0700d4fd07000080fa0000000600fd
:020000040000fa
:020000040015e5
:047e0000ffffff0081
:020000040000fa
:020000040015e5
:047e2000ff1f000040
:020000040000fa
:020000040015e5
:047e300078ffff00d8
:020000040000fa
:020000040015e5
:047e3800b7ffff0091
:020000040000fa
:020000040015e5
:047e40009fffff00a1
:020000040000fa
:020000040015e5
:047e4800ffffff0039
:020000040000fa
:020000040015e5
:047e5000dfffff0051
:020000040000fa
:020000040015e5
:047e5800ffffff0029
:020000040000fa
:020000040100f9
:04300000ffffff00cf
:00000001FF
